{
	"src/structs.sol": {
		"School": {
			"abi": [
				{
					"inputs": [],
					"name": "schoolInstructor",
					"outputs": [
						{
							"internalType": "uint256",
							"name": "age",
							"type": "uint256"
						},
						{
							"internalType": "string",
							"name": "name",
							"type": "string"
						},
						{
							"internalType": "address",
							"name": "addr",
							"type": "address"
						}
					],
					"stateMutability": "view",
					"type": "function"
				}
			],
			"devdoc": {
				"kind": "dev",
				"methods": {},
				"version": 1
			},
			"evm": {
				"assembly": "    /* \"src/structs.sol\":1007:1065  contract School{... */\n  mstore(0x40, 0x80)\n  callvalue\n  dup1\n  iszero\n  tag_1\n  jumpi\n  revert(0x00, 0x00)\ntag_1:\n  pop\n  dataSize(sub_0)\n  dup1\n  dataOffset(sub_0)\n  0x00\n  codecopy\n  0x00\n  return\nstop\n\nsub_0: assembly {\n        /* \"src/structs.sol\":1007:1065  contract School{... */\n      mstore(0x40, 0x80)\n      callvalue\n      dup1\n      iszero\n      tag_1\n      jumpi\n      revert(0x00, 0x00)\n    tag_1:\n      pop\n      jumpi(tag_2, lt(calldatasize, 0x04))\n      shr(0xe0, calldataload(0x00))\n      dup1\n      0x63dad1e6\n      eq\n      tag_3\n      jumpi\n    tag_2:\n      revert(0x00, 0x00)\n        /* \"src/structs.sol\":1028:1062  Instructor public schoolInstructor */\n    tag_3:\n      tag_4\n      tag_5\n      jump\t// in\n    tag_4:\n      mload(0x40)\n      tag_6\n      swap4\n      swap3\n      swap2\n      swap1\n      tag_7\n      jump\t// in\n    tag_6:\n      mload(0x40)\n      dup1\n      swap2\n      sub\n      swap1\n      return\n    tag_5:\n      0x00\n      dup1\n      0x00\n      add\n      sload\n      swap1\n      dup1\n      0x01\n      add\n      dup1\n      sload\n      tag_8\n      swap1\n      tag_9\n      jump\t// in\n    tag_8:\n      dup1\n      0x1f\n      add\n      0x20\n      dup1\n      swap2\n      div\n      mul\n      0x20\n      add\n      mload(0x40)\n      swap1\n      dup2\n      add\n      0x40\n      mstore\n      dup1\n      swap3\n      swap2\n      swap1\n      dup2\n      dup2\n      mstore\n      0x20\n      add\n      dup3\n      dup1\n      sload\n      tag_10\n      swap1\n      tag_9\n      jump\t// in\n    tag_10:\n      dup1\n      iszero\n      tag_11\n      jumpi\n      dup1\n      0x1f\n      lt\n      tag_12\n      jumpi\n      0x0100\n      dup1\n      dup4\n      sload\n      div\n      mul\n      dup4\n      mstore\n      swap2\n      0x20\n      add\n      swap2\n      jump(tag_11)\n    tag_12:\n      dup3\n      add\n      swap2\n      swap1\n      0x00\n      mstore\n      keccak256(0x00, 0x20)\n      swap1\n    tag_13:\n      dup2\n      sload\n      dup2\n      mstore\n      swap1\n      0x01\n      add\n      swap1\n      0x20\n      add\n      dup1\n      dup4\n      gt\n      tag_13\n      jumpi\n      dup3\n      swap1\n      sub\n      0x1f\n      and\n      dup3\n      add\n      swap2\n    tag_11:\n      pop\n      pop\n      pop\n      pop\n      pop\n      swap1\n      dup1\n      0x02\n      add\n      0x00\n      swap1\n      sload\n      swap1\n      0x0100\n      exp\n      swap1\n      div\n      0xffffffffffffffffffffffffffffffffffffffff\n      and\n      swap1\n      pop\n      dup4\n      jump\t// out\n        /* \"#utility.yul\":7:84   */\n    tag_14:\n        /* \"#utility.yul\":44:51   */\n      0x00\n        /* \"#utility.yul\":73:78   */\n      dup2\n        /* \"#utility.yul\":62:78   */\n      swap1\n      pop\n        /* \"#utility.yul\":7:84   */\n      swap2\n      swap1\n      pop\n      jump\t// out\n        /* \"#utility.yul\":90:208   */\n    tag_15:\n        /* \"#utility.yul\":177:201   */\n      tag_28\n        /* \"#utility.yul\":195:200   */\n      dup2\n        /* \"#utility.yul\":177:201   */\n      tag_14\n      jump\t// in\n    tag_28:\n        /* \"#utility.yul\":172:175   */\n      dup3\n        /* \"#utility.yul\":165:202   */\n      mstore\n        /* \"#utility.yul\":90:208   */\n      pop\n      pop\n      jump\t// out\n        /* \"#utility.yul\":214:313   */\n    tag_16:\n        /* \"#utility.yul\":266:272   */\n      0x00\n        /* \"#utility.yul\":300:305   */\n      dup2\n        /* \"#utility.yul\":294:306   */\n      mload\n        /* \"#utility.yul\":284:306   */\n      swap1\n      pop\n        /* \"#utility.yul\":214:313   */\n      swap2\n      swap1\n      pop\n      jump\t// out\n        /* \"#utility.yul\":319:488   */\n    tag_17:\n        /* \"#utility.yul\":403:414   */\n      0x00\n        /* \"#utility.yul\":437:443   */\n      dup3\n        /* \"#utility.yul\":432:435   */\n      dup3\n        /* \"#utility.yul\":425:444   */\n      mstore\n        /* \"#utility.yul\":477:481   */\n      0x20\n        /* \"#utility.yul\":472:475   */\n      dup3\n        /* \"#utility.yul\":468:482   */\n      add\n        /* \"#utility.yul\":453:482   */\n      swap1\n      pop\n        /* \"#utility.yul\":319:488   */\n      swap3\n      swap2\n      pop\n      pop\n      jump\t// out\n        /* \"#utility.yul\":494:633   */\n    tag_18:\n        /* \"#utility.yul\":583:589   */\n      dup3\n        /* \"#utility.yul\":578:581   */\n      dup2\n        /* \"#utility.yul\":573:576   */\n      dup4\n        /* \"#utility.yul\":567:590   */\n      mcopy\n        /* \"#utility.yul\":624:625   */\n      0x00\n        /* \"#utility.yul\":615:621   */\n      dup4\n        /* \"#utility.yul\":610:613   */\n      dup4\n        /* \"#utility.yul\":606:622   */\n      add\n        /* \"#utility.yul\":599:626   */\n      mstore\n        /* \"#utility.yul\":494:633   */\n      pop\n      pop\n      pop\n      jump\t// out\n        /* \"#utility.yul\":639:741   */\n    tag_19:\n        /* \"#utility.yul\":680:686   */\n      0x00\n        /* \"#utility.yul\":731:733   */\n      0x1f\n        /* \"#utility.yul\":727:734   */\n      not\n        /* \"#utility.yul\":722:724   */\n      0x1f\n        /* \"#utility.yul\":715:720   */\n      dup4\n        /* \"#utility.yul\":711:725   */\n      add\n        /* \"#utility.yul\":707:735   */\n      and\n        /* \"#utility.yul\":697:735   */\n      swap1\n      pop\n        /* \"#utility.yul\":639:741   */\n      swap2\n      swap1\n      pop\n      jump\t// out\n        /* \"#utility.yul\":747:1124   */\n    tag_20:\n        /* \"#utility.yul\":835:838   */\n      0x00\n        /* \"#utility.yul\":863:902   */\n      tag_34\n        /* \"#utility.yul\":896:901   */\n      dup3\n        /* \"#utility.yul\":863:902   */\n      tag_16\n      jump\t// in\n    tag_34:\n        /* \"#utility.yul\":918:989   */\n      tag_35\n        /* \"#utility.yul\":982:988   */\n      dup2\n        /* \"#utility.yul\":977:980   */\n      dup6\n        /* \"#utility.yul\":918:989   */\n      tag_17\n      jump\t// in\n    tag_35:\n        /* \"#utility.yul\":911:989   */\n      swap4\n      pop\n        /* \"#utility.yul\":998:1063   */\n      tag_36\n        /* \"#utility.yul\":1056:1062   */\n      dup2\n        /* \"#utility.yul\":1051:1054   */\n      dup6\n        /* \"#utility.yul\":1044:1048   */\n      0x20\n        /* \"#utility.yul\":1037:1042   */\n      dup7\n        /* \"#utility.yul\":1033:1049   */\n      add\n        /* \"#utility.yul\":998:1063   */\n      tag_18\n      jump\t// in\n    tag_36:\n        /* \"#utility.yul\":1088:1117   */\n      tag_37\n        /* \"#utility.yul\":1110:1116   */\n      dup2\n        /* \"#utility.yul\":1088:1117   */\n      tag_19\n      jump\t// in\n    tag_37:\n        /* \"#utility.yul\":1083:1086   */\n      dup5\n        /* \"#utility.yul\":1079:1118   */\n      add\n        /* \"#utility.yul\":1072:1118   */\n      swap2\n      pop\n        /* \"#utility.yul\":839:1124   */\n      pop\n        /* \"#utility.yul\":747:1124   */\n      swap3\n      swap2\n      pop\n      pop\n      jump\t// out\n        /* \"#utility.yul\":1130:1256   */\n    tag_21:\n        /* \"#utility.yul\":1167:1174   */\n      0x00\n        /* \"#utility.yul\":1207:1249   */\n      0xffffffffffffffffffffffffffffffffffffffff\n        /* \"#utility.yul\":1200:1205   */\n      dup3\n        /* \"#utility.yul\":1196:1250   */\n      and\n        /* \"#utility.yul\":1185:1250   */\n      swap1\n      pop\n        /* \"#utility.yul\":1130:1256   */\n      swap2\n      swap1\n      pop\n      jump\t// out\n        /* \"#utility.yul\":1262:1358   */\n    tag_22:\n        /* \"#utility.yul\":1299:1306   */\n      0x00\n        /* \"#utility.yul\":1328:1352   */\n      tag_40\n        /* \"#utility.yul\":1346:1351   */\n      dup3\n        /* \"#utility.yul\":1328:1352   */\n      tag_21\n      jump\t// in\n    tag_40:\n        /* \"#utility.yul\":1317:1352   */\n      swap1\n      pop\n        /* \"#utility.yul\":1262:1358   */\n      swap2\n      swap1\n      pop\n      jump\t// out\n        /* \"#utility.yul\":1364:1482   */\n    tag_23:\n        /* \"#utility.yul\":1451:1475   */\n      tag_42\n        /* \"#utility.yul\":1469:1474   */\n      dup2\n        /* \"#utility.yul\":1451:1475   */\n      tag_22\n      jump\t// in\n    tag_42:\n        /* \"#utility.yul\":1446:1449   */\n      dup3\n        /* \"#utility.yul\":1439:1476   */\n      mstore\n        /* \"#utility.yul\":1364:1482   */\n      pop\n      pop\n      jump\t// out\n        /* \"#utility.yul\":1488:2021   */\n    tag_7:\n        /* \"#utility.yul\":1657:1661   */\n      0x00\n        /* \"#utility.yul\":1695:1697   */\n      0x60\n        /* \"#utility.yul\":1684:1693   */\n      dup3\n        /* \"#utility.yul\":1680:1698   */\n      add\n        /* \"#utility.yul\":1672:1698   */\n      swap1\n      pop\n        /* \"#utility.yul\":1708:1779   */\n      tag_44\n        /* \"#utility.yul\":1776:1777   */\n      0x00\n        /* \"#utility.yul\":1765:1774   */\n      dup4\n        /* \"#utility.yul\":1761:1778   */\n      add\n        /* \"#utility.yul\":1752:1758   */\n      dup7\n        /* \"#utility.yul\":1708:1779   */\n      tag_15\n      jump\t// in\n    tag_44:\n        /* \"#utility.yul\":1826:1835   */\n      dup2\n        /* \"#utility.yul\":1820:1824   */\n      dup2\n        /* \"#utility.yul\":1816:1836   */\n      sub\n        /* \"#utility.yul\":1811:1813   */\n      0x20\n        /* \"#utility.yul\":1800:1809   */\n      dup4\n        /* \"#utility.yul\":1796:1814   */\n      add\n        /* \"#utility.yul\":1789:1837   */\n      mstore\n        /* \"#utility.yul\":1854:1932   */\n      tag_45\n        /* \"#utility.yul\":1927:1931   */\n      dup2\n        /* \"#utility.yul\":1918:1924   */\n      dup6\n        /* \"#utility.yul\":1854:1932   */\n      tag_20\n      jump\t// in\n    tag_45:\n        /* \"#utility.yul\":1846:1932   */\n      swap1\n      pop\n        /* \"#utility.yul\":1942:2014   */\n      tag_46\n        /* \"#utility.yul\":2010:2012   */\n      0x40\n        /* \"#utility.yul\":1999:2008   */\n      dup4\n        /* \"#utility.yul\":1995:2013   */\n      add\n        /* \"#utility.yul\":1986:1992   */\n      dup5\n        /* \"#utility.yul\":1942:2014   */\n      tag_23\n      jump\t// in\n    tag_46:\n        /* \"#utility.yul\":1488:2021   */\n      swap5\n      swap4\n      pop\n      pop\n      pop\n      pop\n      jump\t// out\n        /* \"#utility.yul\":2027:2207   */\n    tag_24:\n        /* \"#utility.yul\":2075:2152   */\n      0x4e487b7100000000000000000000000000000000000000000000000000000000\n        /* \"#utility.yul\":2072:2073   */\n      0x00\n        /* \"#utility.yul\":2065:2153   */\n      mstore\n        /* \"#utility.yul\":2172:2176   */\n      0x22\n        /* \"#utility.yul\":2169:2170   */\n      0x04\n        /* \"#utility.yul\":2162:2177   */\n      mstore\n        /* \"#utility.yul\":2196:2200   */\n      0x24\n        /* \"#utility.yul\":2193:2194   */\n      0x00\n        /* \"#utility.yul\":2186:2201   */\n      revert\n        /* \"#utility.yul\":2213:2533   */\n    tag_9:\n        /* \"#utility.yul\":2257:2263   */\n      0x00\n        /* \"#utility.yul\":2294:2295   */\n      0x02\n        /* \"#utility.yul\":2288:2292   */\n      dup3\n        /* \"#utility.yul\":2284:2296   */\n      div\n        /* \"#utility.yul\":2274:2296   */\n      swap1\n      pop\n        /* \"#utility.yul\":2341:2342   */\n      0x01\n        /* \"#utility.yul\":2335:2339   */\n      dup3\n        /* \"#utility.yul\":2331:2343   */\n      and\n        /* \"#utility.yul\":2362:2380   */\n      dup1\n        /* \"#utility.yul\":2352:2433   */\n      tag_49\n      jumpi\n        /* \"#utility.yul\":2418:2422   */\n      0x7f\n        /* \"#utility.yul\":2410:2416   */\n      dup3\n        /* \"#utility.yul\":2406:2423   */\n      and\n        /* \"#utility.yul\":2396:2423   */\n      swap2\n      pop\n        /* \"#utility.yul\":2352:2433   */\n    tag_49:\n        /* \"#utility.yul\":2480:2482   */\n      0x20\n        /* \"#utility.yul\":2472:2478   */\n      dup3\n        /* \"#utility.yul\":2469:2483   */\n      lt\n        /* \"#utility.yul\":2449:2467   */\n      dup2\n        /* \"#utility.yul\":2446:2484   */\n      sub\n        /* \"#utility.yul\":2443:2527   */\n      tag_50\n      jumpi\n        /* \"#utility.yul\":2499:2517   */\n      tag_51\n      tag_24\n      jump\t// in\n    tag_51:\n        /* \"#utility.yul\":2443:2527   */\n    tag_50:\n        /* \"#utility.yul\":2264:2533   */\n      pop\n        /* \"#utility.yul\":2213:2533   */\n      swap2\n      swap1\n      pop\n      jump\t// out\n\n    auxdata: 0xa26469706673582212201d41be5ce3a1b982d34de3089888703901866bff10ccf27f062e2461b9737bd964736f6c634300081c0033\n}\n",
				"bytecode": {
					"linkReferences": {},
					"object": "6080604052348015600e575f5ffd5b5061029e8061001c5f395ff3fe608060405234801561000f575f5ffd5b5060043610610029575f3560e01c806363dad1e61461002d575b5f5ffd5b61003561004d565b604051610044939291906101cf565b60405180910390f35b5f805f01549080600101805461006290610238565b80601f016020809104026020016040519081016040528092919081815260200182805461008e90610238565b80156100d95780601f106100b0576101008083540402835291602001916100d9565b820191905f5260205f20905b8154815290600101906020018083116100bc57829003601f168201915b505050505090806002015f9054906101000a900473ffffffffffffffffffffffffffffffffffffffff16905083565b5f819050919050565b61011a81610108565b82525050565b5f81519050919050565b5f82825260208201905092915050565b8281835e5f83830152505050565b5f601f19601f8301169050919050565b5f61016282610120565b61016c818561012a565b935061017c81856020860161013a565b61018581610148565b840191505092915050565b5f73ffffffffffffffffffffffffffffffffffffffff82169050919050565b5f6101b982610190565b9050919050565b6101c9816101af565b82525050565b5f6060820190506101e25f830186610111565b81810360208301526101f48185610158565b905061020360408301846101c0565b949350505050565b7f4e487b71000000000000000000000000000000000000000000000000000000005f52602260045260245ffd5b5f600282049050600182168061024f57607f821691505b6020821081036102625761026161020b565b5b5091905056fea26469706673582212201d41be5ce3a1b982d34de3089888703901866bff10ccf27f062e2461b9737bd964736f6c634300081c0033",
					"opcodes": "PUSH1 0x80 PUSH1 0x40 MSTORE CALLVALUE DUP1 ISZERO PUSH1 0xE JUMPI PUSH0 PUSH0 REVERT JUMPDEST POP PUSH2 0x29E DUP1 PUSH2 0x1C PUSH0 CODECOPY PUSH0 RETURN INVALID PUSH1 0x80 PUSH1 0x40 MSTORE CALLVALUE DUP1 ISZERO PUSH2 0xF JUMPI PUSH0 PUSH0 REVERT JUMPDEST POP PUSH1 0x4 CALLDATASIZE LT PUSH2 0x29 JUMPI PUSH0 CALLDATALOAD PUSH1 0xE0 SHR DUP1 PUSH4 0x63DAD1E6 EQ PUSH2 0x2D JUMPI JUMPDEST PUSH0 PUSH0 REVERT JUMPDEST PUSH2 0x35 PUSH2 0x4D JUMP JUMPDEST PUSH1 0x40 MLOAD PUSH2 0x44 SWAP4 SWAP3 SWAP2 SWAP1 PUSH2 0x1CF JUMP JUMPDEST PUSH1 0x40 MLOAD DUP1 SWAP2 SUB SWAP1 RETURN JUMPDEST PUSH0 DUP1 PUSH0 ADD SLOAD SWAP1 DUP1 PUSH1 0x1 ADD DUP1 SLOAD PUSH2 0x62 SWAP1 PUSH2 0x238 JUMP JUMPDEST DUP1 PUSH1 0x1F ADD PUSH1 0x20 DUP1 SWAP2 DIV MUL PUSH1 0x20 ADD PUSH1 0x40 MLOAD SWAP1 DUP2 ADD PUSH1 0x40 MSTORE DUP1 SWAP3 SWAP2 SWAP1 DUP2 DUP2 MSTORE PUSH1 0x20 ADD DUP3 DUP1 SLOAD PUSH2 0x8E SWAP1 PUSH2 0x238 JUMP JUMPDEST DUP1 ISZERO PUSH2 0xD9 JUMPI DUP1 PUSH1 0x1F LT PUSH2 0xB0 JUMPI PUSH2 0x100 DUP1 DUP4 SLOAD DIV MUL DUP4 MSTORE SWAP2 PUSH1 0x20 ADD SWAP2 PUSH2 0xD9 JUMP JUMPDEST DUP3 ADD SWAP2 SWAP1 PUSH0 MSTORE PUSH1 0x20 PUSH0 KECCAK256 SWAP1 JUMPDEST DUP2 SLOAD DUP2 MSTORE SWAP1 PUSH1 0x1 ADD SWAP1 PUSH1 0x20 ADD DUP1 DUP4 GT PUSH2 0xBC JUMPI DUP3 SWAP1 SUB PUSH1 0x1F AND DUP3 ADD SWAP2 JUMPDEST POP POP POP POP POP SWAP1 DUP1 PUSH1 0x2 ADD PUSH0 SWAP1 SLOAD SWAP1 PUSH2 0x100 EXP SWAP1 DIV PUSH20 0xFFFFFFFFFFFFFFFFFFFFFFFFFFFFFFFFFFFFFFFF AND SWAP1 POP DUP4 JUMP JUMPDEST PUSH0 DUP2 SWAP1 POP SWAP2 SWAP1 POP JUMP JUMPDEST PUSH2 0x11A DUP2 PUSH2 0x108 JUMP JUMPDEST DUP3 MSTORE POP POP JUMP JUMPDEST PUSH0 DUP2 MLOAD SWAP1 POP SWAP2 SWAP1 POP JUMP JUMPDEST PUSH0 DUP3 DUP3 MSTORE PUSH1 0x20 DUP3 ADD SWAP1 POP SWAP3 SWAP2 POP POP JUMP JUMPDEST DUP3 DUP2 DUP4 MCOPY PUSH0 DUP4 DUP4 ADD MSTORE POP POP POP JUMP JUMPDEST PUSH0 PUSH1 0x1F NOT PUSH1 0x1F DUP4 ADD AND SWAP1 POP SWAP2 SWAP1 POP JUMP JUMPDEST PUSH0 PUSH2 0x162 DUP3 PUSH2 0x120 JUMP JUMPDEST PUSH2 0x16C DUP2 DUP6 PUSH2 0x12A JUMP JUMPDEST SWAP4 POP PUSH2 0x17C DUP2 DUP6 PUSH1 0x20 DUP7 ADD PUSH2 0x13A JUMP JUMPDEST PUSH2 0x185 DUP2 PUSH2 0x148 JUMP JUMPDEST DUP5 ADD SWAP2 POP POP SWAP3 SWAP2 POP POP JUMP JUMPDEST PUSH0 PUSH20 0xFFFFFFFFFFFFFFFFFFFFFFFFFFFFFFFFFFFFFFFF DUP3 AND SWAP1 POP SWAP2 SWAP1 POP JUMP JUMPDEST PUSH0 PUSH2 0x1B9 DUP3 PUSH2 0x190 JUMP JUMPDEST SWAP1 POP SWAP2 SWAP1 POP JUMP JUMPDEST PUSH2 0x1C9 DUP2 PUSH2 0x1AF JUMP JUMPDEST DUP3 MSTORE POP POP JUMP JUMPDEST PUSH0 PUSH1 0x60 DUP3 ADD SWAP1 POP PUSH2 0x1E2 PUSH0 DUP4 ADD DUP7 PUSH2 0x111 JUMP JUMPDEST DUP2 DUP2 SUB PUSH1 0x20 DUP4 ADD MSTORE PUSH2 0x1F4 DUP2 DUP6 PUSH2 0x158 JUMP JUMPDEST SWAP1 POP PUSH2 0x203 PUSH1 0x40 DUP4 ADD DUP5 PUSH2 0x1C0 JUMP JUMPDEST SWAP5 SWAP4 POP POP POP POP JUMP JUMPDEST PUSH32 0x4E487B7100000000000000000000000000000000000000000000000000000000 PUSH0 MSTORE PUSH1 0x22 PUSH1 0x4 MSTORE PUSH1 0x24 PUSH0 REVERT JUMPDEST PUSH0 PUSH1 0x2 DUP3 DIV SWAP1 POP PUSH1 0x1 DUP3 AND DUP1 PUSH2 0x24F JUMPI PUSH1 0x7F DUP3 AND SWAP2 POP JUMPDEST PUSH1 0x20 DUP3 LT DUP2 SUB PUSH2 0x262 JUMPI PUSH2 0x261 PUSH2 0x20B JUMP JUMPDEST JUMPDEST POP SWAP2 SWAP1 POP JUMP INVALID LOG2 PUSH5 0x6970667358 0x22 SLT KECCAK256 SAR COINBASE 0xBE TLOAD 0xE3 LOG1 0xB9 DUP3 0xD3 0x4D 0xE3 ADDMOD SWAP9 DUP9 PUSH17 0x3901866BFF10CCF27F062E2461B9737BD9 PUSH5 0x736F6C6343 STOP ADDMOD SHR STOP CALLER "
				},
				"gasEstimates": {
					"creation": {
						"codeDepositCost": "134000",
						"executionCost": "175",
						"totalCost": "134175"
					},
					"external": {
						"schoolInstructor()": "infinite"
					}
				},
				"methodIdentifiers": {
					"schoolInstructor()": "63dad1e6"
				}
			},
			"storageLayout": {
				"storage": [
					{
						"astId": 100,
						"contract": "src/structs.sol:School",
						"label": "schoolInstructor",
						"offset": 0,
						"slot": "0",
						"type": "t_struct(Instructor)8_storage"
					}
				],
				"types": {
					"t_address": {
						"encoding": "inplace",
						"label": "address",
						"numberOfBytes": "20"
					},
					"t_string_storage": {
						"encoding": "bytes",
						"label": "string",
						"numberOfBytes": "32"
					},
					"t_struct(Instructor)8_storage": {
						"encoding": "inplace",
						"label": "struct Instructor",
						"members": [
							{
								"astId": 3,
								"contract": "src/structs.sol:School",
								"label": "age",
								"offset": 0,
								"slot": "0",
								"type": "t_uint256"
							},
							{
								"astId": 5,
								"contract": "src/structs.sol:School",
								"label": "name",
								"offset": 0,
								"slot": "1",
								"type": "t_string_storage"
							},
							{
								"astId": 7,
								"contract": "src/structs.sol:School",
								"label": "addr",
								"offset": 0,
								"slot": "2",
								"type": "t_address"
							}
						],
						"numberOfBytes": "96"
					},
					"t_uint256": {
						"encoding": "inplace",
						"label": "uint256",
						"numberOfBytes": "32"
					}
				}
			},
			"userdoc": {
				"kind": "user",
				"methods": {},
				"version": 1
			}
		}
	}
}