{
	"src/GlobalVariables_2.sol": {
		"GlobalVars": {
			"abi": [
				{
					"inputs": [],
					"name": "block_number",
					"outputs": [
						{
							"internalType": "uint256",
							"name": "",
							"type": "uint256"
						}
					],
					"stateMutability": "view",
					"type": "function"
				},
				{
					"inputs": [],
					"name": "difficulty",
					"outputs": [
						{
							"internalType": "uint256",
							"name": "",
							"type": "uint256"
						}
					],
					"stateMutability": "view",
					"type": "function"
				},
				{
					"inputs": [],
					"name": "gaslimit",
					"outputs": [
						{
							"internalType": "uint256",
							"name": "",
							"type": "uint256"
						}
					],
					"stateMutability": "view",
					"type": "function"
				},
				{
					"inputs": [],
					"name": "this_moment",
					"outputs": [
						{
							"internalType": "uint256",
							"name": "",
							"type": "uint256"
						}
					],
					"stateMutability": "view",
					"type": "function"
				}
			],
			"devdoc": {
				"kind": "dev",
				"methods": {},
				"version": 1
			},
			"evm": {
				"assembly": "    /* \"src/GlobalVariables_2.sol\":57:290  contract GlobalVars{... */\n  mstore(0x40, 0x80)\n    /* \"src/GlobalVariables_2.sol\":108:123  block.timestamp */\n  timestamp\n    /* \"src/GlobalVariables_2.sol\":82:123  uint public this_moment = block.timestamp */\n  0x00\n  sstore\n    /* \"src/GlobalVariables_2.sol\":184:196  block.number */\n  number\n    /* \"src/GlobalVariables_2.sol\":157:196  uint public block_number = block.number */\n  0x01\n  sstore\n    /* \"src/GlobalVariables_2.sol\":227:243  block.prevrandao */\n  prevrandao\n    /* \"src/GlobalVariables_2.sol\":202:243  uint public difficulty = block.prevrandao */\n  0x02\n  sstore\n    /* \"src/GlobalVariables_2.sol\":272:286  block.gaslimit */\n  gaslimit\n    /* \"src/GlobalVariables_2.sol\":249:286  uint public gaslimit = block.gaslimit */\n  0x03\n  sstore\n    /* \"src/GlobalVariables_2.sol\":57:290  contract GlobalVars{... */\n  callvalue\n  dup1\n  iszero\n  tag_1\n  jumpi\n  revert(0x00, 0x00)\ntag_1:\n  pop\n  dataSize(sub_0)\n  dup1\n  dataOffset(sub_0)\n  0x00\n  codecopy\n  0x00\n  return\nstop\n\nsub_0: assembly {\n        /* \"src/GlobalVariables_2.sol\":57:290  contract GlobalVars{... */\n      mstore(0x40, 0x80)\n      callvalue\n      dup1\n      iszero\n      tag_1\n      jumpi\n      revert(0x00, 0x00)\n    tag_1:\n      pop\n      jumpi(tag_2, lt(calldatasize, 0x04))\n      shr(0xe0, calldataload(0x00))\n      dup1\n      0x19cae462\n      eq\n      tag_3\n      jumpi\n      dup1\n      0x25a58b56\n      eq\n      tag_4\n      jumpi\n      dup1\n      0x2a722839\n      eq\n      tag_5\n      jumpi\n      dup1\n      0xa0200b58\n      eq\n      tag_6\n      jumpi\n    tag_2:\n      revert(0x00, 0x00)\n        /* \"src/GlobalVariables_2.sol\":202:243  uint public difficulty = block.prevrandao */\n    tag_3:\n      tag_7\n      tag_8\n      jump\t// in\n    tag_7:\n      mload(0x40)\n      tag_9\n      swap2\n      swap1\n      tag_10\n      jump\t// in\n    tag_9:\n      mload(0x40)\n      dup1\n      swap2\n      sub\n      swap1\n      return\n        /* \"src/GlobalVariables_2.sol\":157:196  uint public block_number = block.number */\n    tag_4:\n      tag_11\n      tag_12\n      jump\t// in\n    tag_11:\n      mload(0x40)\n      tag_13\n      swap2\n      swap1\n      tag_10\n      jump\t// in\n    tag_13:\n      mload(0x40)\n      dup1\n      swap2\n      sub\n      swap1\n      return\n        /* \"src/GlobalVariables_2.sol\":249:286  uint public gaslimit = block.gaslimit */\n    tag_5:\n      tag_14\n      tag_15\n      jump\t// in\n    tag_14:\n      mload(0x40)\n      tag_16\n      swap2\n      swap1\n      tag_10\n      jump\t// in\n    tag_16:\n      mload(0x40)\n      dup1\n      swap2\n      sub\n      swap1\n      return\n        /* \"src/GlobalVariables_2.sol\":82:123  uint public this_moment = block.timestamp */\n    tag_6:\n      tag_17\n      tag_18\n      jump\t// in\n    tag_17:\n      mload(0x40)\n      tag_19\n      swap2\n      swap1\n      tag_10\n      jump\t// in\n    tag_19:\n      mload(0x40)\n      dup1\n      swap2\n      sub\n      swap1\n      return\n        /* \"src/GlobalVariables_2.sol\":202:243  uint public difficulty = block.prevrandao */\n    tag_8:\n      sload(0x02)\n      dup2\n      jump\t// out\n        /* \"src/GlobalVariables_2.sol\":157:196  uint public block_number = block.number */\n    tag_12:\n      sload(0x01)\n      dup2\n      jump\t// out\n        /* \"src/GlobalVariables_2.sol\":249:286  uint public gaslimit = block.gaslimit */\n    tag_15:\n      sload(0x03)\n      dup2\n      jump\t// out\n        /* \"src/GlobalVariables_2.sol\":82:123  uint public this_moment = block.timestamp */\n    tag_18:\n      sload(0x00)\n      dup2\n      jump\t// out\n        /* \"#utility.yul\":7:84   */\n    tag_20:\n        /* \"#utility.yul\":44:51   */\n      0x00\n        /* \"#utility.yul\":73:78   */\n      dup2\n        /* \"#utility.yul\":62:78   */\n      swap1\n      pop\n        /* \"#utility.yul\":7:84   */\n      swap2\n      swap1\n      pop\n      jump\t// out\n        /* \"#utility.yul\":90:208   */\n    tag_21:\n        /* \"#utility.yul\":177:201   */\n      tag_25\n        /* \"#utility.yul\":195:200   */\n      dup2\n        /* \"#utility.yul\":177:201   */\n      tag_20\n      jump\t// in\n    tag_25:\n        /* \"#utility.yul\":172:175   */\n      dup3\n        /* \"#utility.yul\":165:202   */\n      mstore\n        /* \"#utility.yul\":90:208   */\n      pop\n      pop\n      jump\t// out\n        /* \"#utility.yul\":214:436   */\n    tag_10:\n        /* \"#utility.yul\":307:311   */\n      0x00\n        /* \"#utility.yul\":345:347   */\n      0x20\n        /* \"#utility.yul\":334:343   */\n      dup3\n        /* \"#utility.yul\":330:348   */\n      add\n        /* \"#utility.yul\":322:348   */\n      swap1\n      pop\n        /* \"#utility.yul\":358:429   */\n      tag_27\n        /* \"#utility.yul\":426:427   */\n      0x00\n        /* \"#utility.yul\":415:424   */\n      dup4\n        /* \"#utility.yul\":411:428   */\n      add\n        /* \"#utility.yul\":402:408   */\n      dup5\n        /* \"#utility.yul\":358:429   */\n      tag_21\n      jump\t// in\n    tag_27:\n        /* \"#utility.yul\":214:436   */\n      swap3\n      swap2\n      pop\n      pop\n      jump\t// out\n\n    auxdata: 0xa26469706673582212204d7b80c0873f6d88a474abcfed52302b4d9c75c3b4dcb3cc49442727185d005e64736f6c634300081c0033\n}\n",
				"bytecode": {
					"linkReferences": {},
					"object": "6080604052425f55436001554460025545600355348015601d575f5ffd5b5061012a8061002b5f395ff3fe6080604052348015600e575f5ffd5b50600436106044575f3560e01c806319cae46214604857806325a58b561460625780632a72283914607c578063a0200b58146096575b5f5ffd5b604e60b0565b6040516059919060dd565b60405180910390f35b606860b6565b6040516073919060dd565b60405180910390f35b608260bc565b604051608d919060dd565b60405180910390f35b609c60c2565b60405160a7919060dd565b60405180910390f35b60025481565b60015481565b60035481565b5f5481565b5f819050919050565b60d78160c7565b82525050565b5f60208201905060ee5f83018460d0565b9291505056fea26469706673582212204d7b80c0873f6d88a474abcfed52302b4d9c75c3b4dcb3cc49442727185d005e64736f6c634300081c0033",
					"opcodes": "PUSH1 0x80 PUSH1 0x40 MSTORE TIMESTAMP PUSH0 SSTORE NUMBER PUSH1 0x1 SSTORE PREVRANDAO PUSH1 0x2 SSTORE GASLIMIT PUSH1 0x3 SSTORE CALLVALUE DUP1 ISZERO PUSH1 0x1D JUMPI PUSH0 PUSH0 REVERT JUMPDEST POP PUSH2 0x12A DUP1 PUSH2 0x2B PUSH0 CODECOPY PUSH0 RETURN INVALID PUSH1 0x80 PUSH1 0x40 MSTORE CALLVALUE DUP1 ISZERO PUSH1 0xE JUMPI PUSH0 PUSH0 REVERT JUMPDEST POP PUSH1 0x4 CALLDATASIZE LT PUSH1 0x44 JUMPI PUSH0 CALLDATALOAD PUSH1 0xE0 SHR DUP1 PUSH4 0x19CAE462 EQ PUSH1 0x48 JUMPI DUP1 PUSH4 0x25A58B56 EQ PUSH1 0x62 JUMPI DUP1 PUSH4 0x2A722839 EQ PUSH1 0x7C JUMPI DUP1 PUSH4 0xA0200B58 EQ PUSH1 0x96 JUMPI JUMPDEST PUSH0 PUSH0 REVERT JUMPDEST PUSH1 0x4E PUSH1 0xB0 JUMP JUMPDEST PUSH1 0x40 MLOAD PUSH1 0x59 SWAP2 SWAP1 PUSH1 0xDD JUMP JUMPDEST PUSH1 0x40 MLOAD DUP1 SWAP2 SUB SWAP1 RETURN JUMPDEST PUSH1 0x68 PUSH1 0xB6 JUMP JUMPDEST PUSH1 0x40 MLOAD PUSH1 0x73 SWAP2 SWAP1 PUSH1 0xDD JUMP JUMPDEST PUSH1 0x40 MLOAD DUP1 SWAP2 SUB SWAP1 RETURN JUMPDEST PUSH1 0x82 PUSH1 0xBC JUMP JUMPDEST PUSH1 0x40 MLOAD PUSH1 0x8D SWAP2 SWAP1 PUSH1 0xDD JUMP JUMPDEST PUSH1 0x40 MLOAD DUP1 SWAP2 SUB SWAP1 RETURN JUMPDEST PUSH1 0x9C PUSH1 0xC2 JUMP JUMPDEST PUSH1 0x40 MLOAD PUSH1 0xA7 SWAP2 SWAP1 PUSH1 0xDD JUMP JUMPDEST PUSH1 0x40 MLOAD DUP1 SWAP2 SUB SWAP1 RETURN JUMPDEST PUSH1 0x2 SLOAD DUP2 JUMP JUMPDEST PUSH1 0x1 SLOAD DUP2 JUMP JUMPDEST PUSH1 0x3 SLOAD DUP2 JUMP JUMPDEST PUSH0 SLOAD DUP2 JUMP JUMPDEST PUSH0 DUP2 SWAP1 POP SWAP2 SWAP1 POP JUMP JUMPDEST PUSH1 0xD7 DUP2 PUSH1 0xC7 JUMP JUMPDEST DUP3 MSTORE POP POP JUMP JUMPDEST PUSH0 PUSH1 0x20 DUP3 ADD SWAP1 POP PUSH1 0xEE PUSH0 DUP4 ADD DUP5 PUSH1 0xD0 JUMP JUMPDEST SWAP3 SWAP2 POP POP JUMP INVALID LOG2 PUSH5 0x6970667358 0x22 SLT KECCAK256 0x4D PUSH28 0x80C0873F6D88A474ABCFED52302B4D9C75C3B4DCB3CC49442727185D STOP MCOPY PUSH5 0x736F6C6343 STOP ADDMOD SHR STOP CALLER "
				},
				"gasEstimates": {
					"creation": {
						"codeDepositCost": "59600",
						"executionCost": "88528",
						"totalCost": "148128"
					},
					"external": {
						"block_number()": "2425",
						"difficulty()": "2403",
						"gaslimit()": "2447",
						"this_moment()": "2468"
					}
				},
				"methodIdentifiers": {
					"block_number()": "25a58b56",
					"difficulty()": "19cae462",
					"gaslimit()": "2a722839",
					"this_moment()": "a0200b58"
				}
			},
			"storageLayout": {
				"storage": [
					{
						"astId": 5,
						"contract": "src/GlobalVariables_2.sol:GlobalVars",
						"label": "this_moment",
						"offset": 0,
						"slot": "0",
						"type": "t_uint256"
					},
					{
						"astId": 9,
						"contract": "src/GlobalVariables_2.sol:GlobalVars",
						"label": "block_number",
						"offset": 0,
						"slot": "1",
						"type": "t_uint256"
					},
					{
						"astId": 13,
						"contract": "src/GlobalVariables_2.sol:GlobalVars",
						"label": "difficulty",
						"offset": 0,
						"slot": "2",
						"type": "t_uint256"
					},
					{
						"astId": 17,
						"contract": "src/GlobalVariables_2.sol:GlobalVars",
						"label": "gaslimit",
						"offset": 0,
						"slot": "3",
						"type": "t_uint256"
					}
				],
				"types": {
					"t_uint256": {
						"encoding": "inplace",
						"label": "uint256",
						"numberOfBytes": "32"
					}
				}
			},
			"userdoc": {
				"kind": "user",
				"methods": {},
				"version": 1
			}
		}
	}
}