{
	"src/contractTwo.sol": {
		"Property": {
			"abi": [
				{
					"inputs": [
						{
							"internalType": "int256",
							"name": "_price",
							"type": "int256"
						},
						{
							"internalType": "string",
							"name": "_location",
							"type": "string"
						}
					],
					"stateMutability": "nonpayable",
					"type": "constructor"
				},
				{
					"inputs": [],
					"name": "getPrice",
					"outputs": [
						{
							"internalType": "int256",
							"name": "",
							"type": "int256"
						}
					],
					"stateMutability": "view",
					"type": "function"
				},
				{
					"inputs": [],
					"name": "location",
					"outputs": [
						{
							"internalType": "string",
							"name": "",
							"type": "string"
						}
					],
					"stateMutability": "view",
					"type": "function"
				},
				{
					"inputs": [],
					"name": "owner",
					"outputs": [
						{
							"internalType": "address",
							"name": "",
							"type": "address"
						}
					],
					"stateMutability": "view",
					"type": "function"
				},
				{
					"inputs": [],
					"name": "price",
					"outputs": [
						{
							"internalType": "int256",
							"name": "",
							"type": "int256"
						}
					],
					"stateMutability": "view",
					"type": "function"
				},
				{
					"inputs": [
						{
							"internalType": "int256",
							"name": "_price",
							"type": "int256"
						}
					],
					"name": "setPrice",
					"outputs": [],
					"stateMutability": "nonpayable",
					"type": "function"
				}
			],
			"devdoc": {
				"kind": "dev",
				"methods": {},
				"version": 1
			},
			"evm": {
				"assembly": "    /* \"src/contractTwo.sol\":58:487  contract Property{... */\n  mstore(0x40, 0xc0)\n    /* \"src/contractTwo.sol\":188:191  100 */\n  0x64\n    /* \"src/contractTwo.sol\":167:191  int immutable area = 100 */\n  0xa0\n  swap1\n  dup2\n  mstore\n  pop\n    /* \"src/contractTwo.sol\":198:335  constructor(int _price, string memory _location){... */\n  callvalue\n  dup1\n  iszero\n  tag_1\n  jumpi\n  revert(0x00, 0x00)\ntag_1:\n  pop\n  mload(0x40)\n  sub(codesize, bytecodeSize)\n  dup1\n  bytecodeSize\n  dup4\n  codecopy\n  dup2\n  dup2\n  add\n  0x40\n  mstore\n  dup2\n  add\n  swap1\n  tag_2\n  swap2\n  swap1\n  tag_3\n  jump\t// in\ntag_2:\n    /* \"src/contractTwo.sol\":264:270  _price */\n  dup2\n    /* \"src/contractTwo.sol\":256:261  price */\n  0x00\n    /* \"src/contractTwo.sol\":256:270  price = _price */\n  dup2\n  swap1\n  sstore\n  pop\n    /* \"src/contractTwo.sol\":291:300  _location */\n  dup1\n    /* \"src/contractTwo.sol\":280:288  location */\n  0x01\n    /* \"src/contractTwo.sol\":280:300  location = _location */\n  swap1\n  dup2\n  tag_6\n  swap2\n  swap1\n  tag_7\n  jump\t// in\ntag_6:\n  pop\n    /* \"src/contractTwo.sol\":318:328  msg.sender */\n  caller\n    /* \"src/contractTwo.sol\":310:328  owner = msg.sender */\n  0xffffffffffffffffffffffffffffffffffffffff\n  and\n  0x80\n  dup2\n  0xffffffffffffffffffffffffffffffffffffffff\n  and\n  dup2\n  mstore\n  pop\n  pop\n    /* \"src/contractTwo.sol\":198:335  constructor(int _price, string memory _location){... */\n  pop\n  pop\n    /* \"src/contractTwo.sol\":58:487  contract Property{... */\n  jump(tag_8)\n    /* \"#utility.yul\":7:82   */\ntag_9:\n    /* \"#utility.yul\":40:46   */\n  0x00\n    /* \"#utility.yul\":73:75   */\n  0x40\n    /* \"#utility.yul\":67:76   */\n  mload\n    /* \"#utility.yul\":57:76   */\n  swap1\n  pop\n    /* \"#utility.yul\":7:82   */\n  swap1\n  jump\t// out\n    /* \"#utility.yul\":88:205   */\ntag_10:\n    /* \"#utility.yul\":197:198   */\n  0x00\n    /* \"#utility.yul\":194:195   */\n  0x00\n    /* \"#utility.yul\":187:199   */\n  revert\n    /* \"#utility.yul\":211:328   */\ntag_11:\n    /* \"#utility.yul\":320:321   */\n  0x00\n    /* \"#utility.yul\":317:318   */\n  0x00\n    /* \"#utility.yul\":310:322   */\n  revert\n    /* \"#utility.yul\":334:410   */\ntag_12:\n    /* \"#utility.yul\":370:377   */\n  0x00\n    /* \"#utility.yul\":399:404   */\n  dup2\n    /* \"#utility.yul\":388:404   */\n  swap1\n  pop\n    /* \"#utility.yul\":334:410   */\n  swap2\n  swap1\n  pop\n  jump\t// out\n    /* \"#utility.yul\":416:536   */\ntag_13:\n    /* \"#utility.yul\":488:511   */\n  tag_50\n    /* \"#utility.yul\":505:510   */\n  dup2\n    /* \"#utility.yul\":488:511   */\n  tag_12\n  jump\t// in\ntag_50:\n    /* \"#utility.yul\":481:486   */\n  dup2\n    /* \"#utility.yul\":478:512   */\n  eq\n    /* \"#utility.yul\":468:530   */\n  tag_51\n  jumpi\n    /* \"#utility.yul\":526:527   */\n  0x00\n    /* \"#utility.yul\":523:524   */\n  0x00\n    /* \"#utility.yul\":516:528   */\n  revert\n    /* \"#utility.yul\":468:530   */\ntag_51:\n    /* \"#utility.yul\":416:536   */\n  pop\n  jump\t// out\n    /* \"#utility.yul\":542:683   */\ntag_14:\n    /* \"#utility.yul\":598:603   */\n  0x00\n    /* \"#utility.yul\":629:635   */\n  dup2\n    /* \"#utility.yul\":623:636   */\n  mload\n    /* \"#utility.yul\":614:636   */\n  swap1\n  pop\n    /* \"#utility.yul\":645:677   */\n  tag_53\n    /* \"#utility.yul\":671:676   */\n  dup2\n    /* \"#utility.yul\":645:677   */\n  tag_13\n  jump\t// in\ntag_53:\n    /* \"#utility.yul\":542:683   */\n  swap3\n  swap2\n  pop\n  pop\n  jump\t// out\n    /* \"#utility.yul\":689:806   */\ntag_15:\n    /* \"#utility.yul\":798:799   */\n  0x00\n    /* \"#utility.yul\":795:796   */\n  0x00\n    /* \"#utility.yul\":788:800   */\n  revert\n    /* \"#utility.yul\":812:929   */\ntag_16:\n    /* \"#utility.yul\":921:922   */\n  0x00\n    /* \"#utility.yul\":918:919   */\n  0x00\n    /* \"#utility.yul\":911:923   */\n  revert\n    /* \"#utility.yul\":935:1037   */\ntag_17:\n    /* \"#utility.yul\":976:982   */\n  0x00\n    /* \"#utility.yul\":1027:1029   */\n  0x1f\n    /* \"#utility.yul\":1023:1030   */\n  not\n    /* \"#utility.yul\":1018:1020   */\n  0x1f\n    /* \"#utility.yul\":1011:1016   */\n  dup4\n    /* \"#utility.yul\":1007:1021   */\n  add\n    /* \"#utility.yul\":1003:1031   */\n  and\n    /* \"#utility.yul\":993:1031   */\n  swap1\n  pop\n    /* \"#utility.yul\":935:1037   */\n  swap2\n  swap1\n  pop\n  jump\t// out\n    /* \"#utility.yul\":1043:1223   */\ntag_18:\n    /* \"#utility.yul\":1091:1168   */\n  0x4e487b7100000000000000000000000000000000000000000000000000000000\n    /* \"#utility.yul\":1088:1089   */\n  0x00\n    /* \"#utility.yul\":1081:1169   */\n  mstore\n    /* \"#utility.yul\":1188:1192   */\n  0x41\n    /* \"#utility.yul\":1185:1186   */\n  0x04\n    /* \"#utility.yul\":1178:1193   */\n  mstore\n    /* \"#utility.yul\":1212:1216   */\n  0x24\n    /* \"#utility.yul\":1209:1210   */\n  0x00\n    /* \"#utility.yul\":1202:1217   */\n  revert\n    /* \"#utility.yul\":1229:1510   */\ntag_19:\n    /* \"#utility.yul\":1312:1339   */\n  tag_59\n    /* \"#utility.yul\":1334:1338   */\n  dup3\n    /* \"#utility.yul\":1312:1339   */\n  tag_17\n  jump\t// in\ntag_59:\n    /* \"#utility.yul\":1304:1310   */\n  dup2\n    /* \"#utility.yul\":1300:1340   */\n  add\n    /* \"#utility.yul\":1442:1448   */\n  dup2\n    /* \"#utility.yul\":1430:1440   */\n  dup2\n    /* \"#utility.yul\":1427:1449   */\n  lt\n    /* \"#utility.yul\":1406:1424   */\n  0xffffffffffffffff\n    /* \"#utility.yul\":1394:1404   */\n  dup3\n    /* \"#utility.yul\":1391:1425   */\n  gt\n    /* \"#utility.yul\":1388:1450   */\n  or\n    /* \"#utility.yul\":1385:1473   */\n  iszero\n  tag_60\n  jumpi\n    /* \"#utility.yul\":1453:1471   */\n  tag_61\n  tag_18\n  jump\t// in\ntag_61:\n    /* \"#utility.yul\":1385:1473   */\ntag_60:\n    /* \"#utility.yul\":1493:1503   */\n  dup1\n    /* \"#utility.yul\":1489:1491   */\n  0x40\n    /* \"#utility.yul\":1482:1504   */\n  mstore\n    /* \"#utility.yul\":1272:1510   */\n  pop\n    /* \"#utility.yul\":1229:1510   */\n  pop\n  pop\n  jump\t// out\n    /* \"#utility.yul\":1516:1645   */\ntag_20:\n    /* \"#utility.yul\":1550:1556   */\n  0x00\n    /* \"#utility.yul\":1577:1597   */\n  tag_63\n  tag_9\n  jump\t// in\ntag_63:\n    /* \"#utility.yul\":1567:1597   */\n  swap1\n  pop\n    /* \"#utility.yul\":1606:1639   */\n  tag_64\n    /* \"#utility.yul\":1634:1638   */\n  dup3\n    /* \"#utility.yul\":1626:1632   */\n  dup3\n    /* \"#utility.yul\":1606:1639   */\n  tag_19\n  jump\t// in\ntag_64:\n    /* \"#utility.yul\":1516:1645   */\n  swap2\n  swap1\n  pop\n  jump\t// out\n    /* \"#utility.yul\":1651:1959   */\ntag_21:\n    /* \"#utility.yul\":1713:1717   */\n  0x00\n    /* \"#utility.yul\":1803:1821   */\n  0xffffffffffffffff\n    /* \"#utility.yul\":1795:1801   */\n  dup3\n    /* \"#utility.yul\":1792:1822   */\n  gt\n    /* \"#utility.yul\":1789:1845   */\n  iszero\n  tag_66\n  jumpi\n    /* \"#utility.yul\":1825:1843   */\n  tag_67\n  tag_18\n  jump\t// in\ntag_67:\n    /* \"#utility.yul\":1789:1845   */\ntag_66:\n    /* \"#utility.yul\":1863:1892   */\n  tag_68\n    /* \"#utility.yul\":1885:1891   */\n  dup3\n    /* \"#utility.yul\":1863:1892   */\n  tag_17\n  jump\t// in\ntag_68:\n    /* \"#utility.yul\":1855:1892   */\n  swap1\n  pop\n    /* \"#utility.yul\":1947:1951   */\n  0x20\n    /* \"#utility.yul\":1941:1945   */\n  dup2\n    /* \"#utility.yul\":1937:1952   */\n  add\n    /* \"#utility.yul\":1929:1952   */\n  swap1\n  pop\n    /* \"#utility.yul\":1651:1959   */\n  swap2\n  swap1\n  pop\n  jump\t// out\n    /* \"#utility.yul\":1965:2104   */\ntag_22:\n    /* \"#utility.yul\":2054:2060   */\n  dup3\n    /* \"#utility.yul\":2049:2052   */\n  dup2\n    /* \"#utility.yul\":2044:2047   */\n  dup4\n    /* \"#utility.yul\":2038:2061   */\n  mcopy\n    /* \"#utility.yul\":2095:2096   */\n  0x00\n    /* \"#utility.yul\":2086:2092   */\n  dup4\n    /* \"#utility.yul\":2081:2084   */\n  dup4\n    /* \"#utility.yul\":2077:2093   */\n  add\n    /* \"#utility.yul\":2070:2097   */\n  mstore\n    /* \"#utility.yul\":1965:2104   */\n  pop\n  pop\n  pop\n  jump\t// out\n    /* \"#utility.yul\":2110:2544   */\ntag_23:\n    /* \"#utility.yul\":2199:2204   */\n  0x00\n    /* \"#utility.yul\":2224:2290   */\n  tag_71\n    /* \"#utility.yul\":2240:2289   */\n  tag_72\n    /* \"#utility.yul\":2282:2288   */\n  dup5\n    /* \"#utility.yul\":2240:2289   */\n  tag_21\n  jump\t// in\ntag_72:\n    /* \"#utility.yul\":2224:2290   */\n  tag_20\n  jump\t// in\ntag_71:\n    /* \"#utility.yul\":2215:2290   */\n  swap1\n  pop\n    /* \"#utility.yul\":2313:2319   */\n  dup3\n    /* \"#utility.yul\":2306:2311   */\n  dup2\n    /* \"#utility.yul\":2299:2320   */\n  mstore\n    /* \"#utility.yul\":2351:2355   */\n  0x20\n    /* \"#utility.yul\":2344:2349   */\n  dup2\n    /* \"#utility.yul\":2340:2356   */\n  add\n    /* \"#utility.yul\":2389:2392   */\n  dup5\n    /* \"#utility.yul\":2380:2386   */\n  dup5\n    /* \"#utility.yul\":2375:2378   */\n  dup5\n    /* \"#utility.yul\":2371:2387   */\n  add\n    /* \"#utility.yul\":2368:2393   */\n  gt\n    /* \"#utility.yul\":2365:2477   */\n  iszero\n  tag_73\n  jumpi\n    /* \"#utility.yul\":2396:2475   */\n  tag_74\n  tag_16\n  jump\t// in\ntag_74:\n    /* \"#utility.yul\":2365:2477   */\ntag_73:\n    /* \"#utility.yul\":2486:2538   */\n  tag_75\n    /* \"#utility.yul\":2531:2537   */\n  dup5\n    /* \"#utility.yul\":2526:2529   */\n  dup3\n    /* \"#utility.yul\":2521:2524   */\n  dup6\n    /* \"#utility.yul\":2486:2538   */\n  tag_22\n  jump\t// in\ntag_75:\n    /* \"#utility.yul\":2205:2544   */\n  pop\n    /* \"#utility.yul\":2110:2544   */\n  swap4\n  swap3\n  pop\n  pop\n  pop\n  jump\t// out\n    /* \"#utility.yul\":2564:2919   */\ntag_24:\n    /* \"#utility.yul\":2631:2636   */\n  0x00\n    /* \"#utility.yul\":2680:2683   */\n  dup3\n    /* \"#utility.yul\":2673:2677   */\n  0x1f\n    /* \"#utility.yul\":2665:2671   */\n  dup4\n    /* \"#utility.yul\":2661:2678   */\n  add\n    /* \"#utility.yul\":2657:2684   */\n  slt\n    /* \"#utility.yul\":2647:2769   */\n  tag_77\n  jumpi\n    /* \"#utility.yul\":2688:2767   */\n  tag_78\n  tag_15\n  jump\t// in\ntag_78:\n    /* \"#utility.yul\":2647:2769   */\ntag_77:\n    /* \"#utility.yul\":2798:2804   */\n  dup2\n    /* \"#utility.yul\":2792:2805   */\n  mload\n    /* \"#utility.yul\":2823:2913   */\n  tag_79\n    /* \"#utility.yul\":2909:2912   */\n  dup5\n    /* \"#utility.yul\":2901:2907   */\n  dup3\n    /* \"#utility.yul\":2894:2898   */\n  0x20\n    /* \"#utility.yul\":2886:2892   */\n  dup7\n    /* \"#utility.yul\":2882:2899   */\n  add\n    /* \"#utility.yul\":2823:2913   */\n  tag_23\n  jump\t// in\ntag_79:\n    /* \"#utility.yul\":2814:2913   */\n  swap2\n  pop\n    /* \"#utility.yul\":2637:2919   */\n  pop\n    /* \"#utility.yul\":2564:2919   */\n  swap3\n  swap2\n  pop\n  pop\n  jump\t// out\n    /* \"#utility.yul\":2925:3603   */\ntag_3:\n    /* \"#utility.yul\":3013:3019   */\n  0x00\n    /* \"#utility.yul\":3021:3027   */\n  0x00\n    /* \"#utility.yul\":3070:3072   */\n  0x40\n    /* \"#utility.yul\":3058:3067   */\n  dup4\n    /* \"#utility.yul\":3049:3056   */\n  dup6\n    /* \"#utility.yul\":3045:3068   */\n  sub\n    /* \"#utility.yul\":3041:3073   */\n  slt\n    /* \"#utility.yul\":3038:3157   */\n  iszero\n  tag_81\n  jumpi\n    /* \"#utility.yul\":3076:3155   */\n  tag_82\n  tag_10\n  jump\t// in\ntag_82:\n    /* \"#utility.yul\":3038:3157   */\ntag_81:\n    /* \"#utility.yul\":3196:3197   */\n  0x00\n    /* \"#utility.yul\":3221:3284   */\n  tag_83\n    /* \"#utility.yul\":3276:3283   */\n  dup6\n    /* \"#utility.yul\":3267:3273   */\n  dup3\n    /* \"#utility.yul\":3256:3265   */\n  dup7\n    /* \"#utility.yul\":3252:3274   */\n  add\n    /* \"#utility.yul\":3221:3284   */\n  tag_14\n  jump\t// in\ntag_83:\n    /* \"#utility.yul\":3211:3284   */\n  swap3\n  pop\n    /* \"#utility.yul\":3167:3294   */\n  pop\n    /* \"#utility.yul\":3354:3356   */\n  0x20\n    /* \"#utility.yul\":3343:3352   */\n  dup4\n    /* \"#utility.yul\":3339:3357   */\n  add\n    /* \"#utility.yul\":3333:3358   */\n  mload\n    /* \"#utility.yul\":3385:3403   */\n  0xffffffffffffffff\n    /* \"#utility.yul\":3377:3383   */\n  dup2\n    /* \"#utility.yul\":3374:3404   */\n  gt\n    /* \"#utility.yul\":3371:3488   */\n  iszero\n  tag_84\n  jumpi\n    /* \"#utility.yul\":3407:3486   */\n  tag_85\n  tag_11\n  jump\t// in\ntag_85:\n    /* \"#utility.yul\":3371:3488   */\ntag_84:\n    /* \"#utility.yul\":3512:3586   */\n  tag_86\n    /* \"#utility.yul\":3578:3585   */\n  dup6\n    /* \"#utility.yul\":3569:3575   */\n  dup3\n    /* \"#utility.yul\":3558:3567   */\n  dup7\n    /* \"#utility.yul\":3554:3576   */\n  add\n    /* \"#utility.yul\":3512:3586   */\n  tag_24\n  jump\t// in\ntag_86:\n    /* \"#utility.yul\":3502:3586   */\n  swap2\n  pop\n    /* \"#utility.yul\":3304:3596   */\n  pop\n    /* \"#utility.yul\":2925:3603   */\n  swap3\n  pop\n  swap3\n  swap1\n  pop\n  jump\t// out\n    /* \"#utility.yul\":3609:3708   */\ntag_25:\n    /* \"#utility.yul\":3661:3667   */\n  0x00\n    /* \"#utility.yul\":3695:3700   */\n  dup2\n    /* \"#utility.yul\":3689:3701   */\n  mload\n    /* \"#utility.yul\":3679:3701   */\n  swap1\n  pop\n    /* \"#utility.yul\":3609:3708   */\n  swap2\n  swap1\n  pop\n  jump\t// out\n    /* \"#utility.yul\":3714:3894   */\ntag_26:\n    /* \"#utility.yul\":3762:3839   */\n  0x4e487b7100000000000000000000000000000000000000000000000000000000\n    /* \"#utility.yul\":3759:3760   */\n  0x00\n    /* \"#utility.yul\":3752:3840   */\n  mstore\n    /* \"#utility.yul\":3859:3863   */\n  0x22\n    /* \"#utility.yul\":3856:3857   */\n  0x04\n    /* \"#utility.yul\":3849:3864   */\n  mstore\n    /* \"#utility.yul\":3883:3887   */\n  0x24\n    /* \"#utility.yul\":3880:3881   */\n  0x00\n    /* \"#utility.yul\":3873:3888   */\n  revert\n    /* \"#utility.yul\":3900:4220   */\ntag_27:\n    /* \"#utility.yul\":3944:3950   */\n  0x00\n    /* \"#utility.yul\":3981:3982   */\n  0x02\n    /* \"#utility.yul\":3975:3979   */\n  dup3\n    /* \"#utility.yul\":3971:3983   */\n  div\n    /* \"#utility.yul\":3961:3983   */\n  swap1\n  pop\n    /* \"#utility.yul\":4028:4029   */\n  0x01\n    /* \"#utility.yul\":4022:4026   */\n  dup3\n    /* \"#utility.yul\":4018:4030   */\n  and\n    /* \"#utility.yul\":4049:4067   */\n  dup1\n    /* \"#utility.yul\":4039:4120   */\n  tag_90\n  jumpi\n    /* \"#utility.yul\":4105:4109   */\n  0x7f\n    /* \"#utility.yul\":4097:4103   */\n  dup3\n    /* \"#utility.yul\":4093:4110   */\n  and\n    /* \"#utility.yul\":4083:4110   */\n  swap2\n  pop\n    /* \"#utility.yul\":4039:4120   */\ntag_90:\n    /* \"#utility.yul\":4167:4169   */\n  0x20\n    /* \"#utility.yul\":4159:4165   */\n  dup3\n    /* \"#utility.yul\":4156:4170   */\n  lt\n    /* \"#utility.yul\":4136:4154   */\n  dup2\n    /* \"#utility.yul\":4133:4171   */\n  sub\n    /* \"#utility.yul\":4130:4214   */\n  tag_91\n  jumpi\n    /* \"#utility.yul\":4186:4204   */\n  tag_92\n  tag_26\n  jump\t// in\ntag_92:\n    /* \"#utility.yul\":4130:4214   */\ntag_91:\n    /* \"#utility.yul\":3951:4220   */\n  pop\n    /* \"#utility.yul\":3900:4220   */\n  swap2\n  swap1\n  pop\n  jump\t// out\n    /* \"#utility.yul\":4226:4367   */\ntag_28:\n    /* \"#utility.yul\":4275:4279   */\n  0x00\n    /* \"#utility.yul\":4298:4301   */\n  dup2\n    /* \"#utility.yul\":4290:4301   */\n  swap1\n  pop\n    /* \"#utility.yul\":4321:4324   */\n  dup2\n    /* \"#utility.yul\":4318:4319   */\n  0x00\n    /* \"#utility.yul\":4311:4325   */\n  mstore\n    /* \"#utility.yul\":4355:4359   */\n  0x20\n    /* \"#utility.yul\":4352:4353   */\n  0x00\n    /* \"#utility.yul\":4342:4360   */\n  keccak256\n    /* \"#utility.yul\":4334:4360   */\n  swap1\n  pop\n    /* \"#utility.yul\":4226:4367   */\n  swap2\n  swap1\n  pop\n  jump\t// out\n    /* \"#utility.yul\":4373:4466   */\ntag_29:\n    /* \"#utility.yul\":4410:4416   */\n  0x00\n    /* \"#utility.yul\":4457:4459   */\n  0x20\n    /* \"#utility.yul\":4452:4454   */\n  0x1f\n    /* \"#utility.yul\":4445:4450   */\n  dup4\n    /* \"#utility.yul\":4441:4455   */\n  add\n    /* \"#utility.yul\":4437:4460   */\n  div\n    /* \"#utility.yul\":4427:4460   */\n  swap1\n  pop\n    /* \"#utility.yul\":4373:4466   */\n  swap2\n  swap1\n  pop\n  jump\t// out\n    /* \"#utility.yul\":4472:4579   */\ntag_30:\n    /* \"#utility.yul\":4516:4524   */\n  0x00\n    /* \"#utility.yul\":4566:4571   */\n  dup3\n    /* \"#utility.yul\":4560:4564   */\n  dup3\n    /* \"#utility.yul\":4556:4572   */\n  shl\n    /* \"#utility.yul\":4535:4572   */\n  swap1\n  pop\n    /* \"#utility.yul\":4472:4579   */\n  swap3\n  swap2\n  pop\n  pop\n  jump\t// out\n    /* \"#utility.yul\":4585:4978   */\ntag_31:\n    /* \"#utility.yul\":4654:4660   */\n  0x00\n    /* \"#utility.yul\":4704:4705   */\n  0x08\n    /* \"#utility.yul\":4692:4702   */\n  dup4\n    /* \"#utility.yul\":4688:4706   */\n  mul\n    /* \"#utility.yul\":4727:4824   */\n  tag_97\n    /* \"#utility.yul\":4757:4823   */\n  0xffffffffffffffffffffffffffffffffffffffffffffffffffffffffffffffff\n    /* \"#utility.yul\":4746:4755   */\n  dup3\n    /* \"#utility.yul\":4727:4824   */\n  tag_30\n  jump\t// in\ntag_97:\n    /* \"#utility.yul\":4845:4884   */\n  tag_98\n    /* \"#utility.yul\":4875:4883   */\n  dup7\n    /* \"#utility.yul\":4864:4873   */\n  dup4\n    /* \"#utility.yul\":4845:4884   */\n  tag_30\n  jump\t// in\ntag_98:\n    /* \"#utility.yul\":4833:4884   */\n  swap6\n  pop\n    /* \"#utility.yul\":4917:4921   */\n  dup1\n    /* \"#utility.yul\":4913:4922   */\n  not\n    /* \"#utility.yul\":4906:4911   */\n  dup5\n    /* \"#utility.yul\":4902:4923   */\n  and\n    /* \"#utility.yul\":4893:4923   */\n  swap4\n  pop\n    /* \"#utility.yul\":4966:4970   */\n  dup1\n    /* \"#utility.yul\":4956:4964   */\n  dup7\n    /* \"#utility.yul\":4952:4971   */\n  and\n    /* \"#utility.yul\":4945:4950   */\n  dup5\n    /* \"#utility.yul\":4942:4972   */\n  or\n    /* \"#utility.yul\":4932:4972   */\n  swap3\n  pop\n    /* \"#utility.yul\":4661:4978   */\n  pop\n  pop\n    /* \"#utility.yul\":4585:4978   */\n  swap4\n  swap3\n  pop\n  pop\n  pop\n  jump\t// out\n    /* \"#utility.yul\":4984:5061   */\ntag_32:\n    /* \"#utility.yul\":5021:5028   */\n  0x00\n    /* \"#utility.yul\":5050:5055   */\n  dup2\n    /* \"#utility.yul\":5039:5055   */\n  swap1\n  pop\n    /* \"#utility.yul\":4984:5061   */\n  swap2\n  swap1\n  pop\n  jump\t// out\n    /* \"#utility.yul\":5067:5127   */\ntag_33:\n    /* \"#utility.yul\":5095:5098   */\n  0x00\n    /* \"#utility.yul\":5116:5121   */\n  dup2\n    /* \"#utility.yul\":5109:5121   */\n  swap1\n  pop\n    /* \"#utility.yul\":5067:5127   */\n  swap2\n  swap1\n  pop\n  jump\t// out\n    /* \"#utility.yul\":5133:5275   */\ntag_34:\n    /* \"#utility.yul\":5183:5192   */\n  0x00\n    /* \"#utility.yul\":5216:5269   */\n  tag_102\n    /* \"#utility.yul\":5234:5268   */\n  tag_103\n    /* \"#utility.yul\":5243:5267   */\n  tag_104\n    /* \"#utility.yul\":5261:5266   */\n  dup5\n    /* \"#utility.yul\":5243:5267   */\n  tag_32\n  jump\t// in\ntag_104:\n    /* \"#utility.yul\":5234:5268   */\n  tag_33\n  jump\t// in\ntag_103:\n    /* \"#utility.yul\":5216:5269   */\n  tag_32\n  jump\t// in\ntag_102:\n    /* \"#utility.yul\":5203:5269   */\n  swap1\n  pop\n    /* \"#utility.yul\":5133:5275   */\n  swap2\n  swap1\n  pop\n  jump\t// out\n    /* \"#utility.yul\":5281:5356   */\ntag_35:\n    /* \"#utility.yul\":5324:5327   */\n  0x00\n    /* \"#utility.yul\":5345:5350   */\n  dup2\n    /* \"#utility.yul\":5338:5350   */\n  swap1\n  pop\n    /* \"#utility.yul\":5281:5356   */\n  swap2\n  swap1\n  pop\n  jump\t// out\n    /* \"#utility.yul\":5362:5631   */\ntag_36:\n    /* \"#utility.yul\":5472:5511   */\n  tag_107\n    /* \"#utility.yul\":5503:5510   */\n  dup4\n    /* \"#utility.yul\":5472:5511   */\n  tag_34\n  jump\t// in\ntag_107:\n    /* \"#utility.yul\":5533:5624   */\n  tag_108\n    /* \"#utility.yul\":5582:5623   */\n  tag_109\n    /* \"#utility.yul\":5606:5622   */\n  dup3\n    /* \"#utility.yul\":5582:5623   */\n  tag_35\n  jump\t// in\ntag_109:\n    /* \"#utility.yul\":5574:5580   */\n  dup5\n    /* \"#utility.yul\":5567:5571   */\n  dup5\n    /* \"#utility.yul\":5561:5572   */\n  sload\n    /* \"#utility.yul\":5533:5624   */\n  tag_31\n  jump\t// in\ntag_108:\n    /* \"#utility.yul\":5527:5531   */\n  dup3\n    /* \"#utility.yul\":5520:5625   */\n  sstore\n    /* \"#utility.yul\":5438:5631   */\n  pop\n    /* \"#utility.yul\":5362:5631   */\n  pop\n  pop\n  pop\n  jump\t// out\n    /* \"#utility.yul\":5637:5710   */\ntag_37:\n    /* \"#utility.yul\":5682:5685   */\n  0x00\n    /* \"#utility.yul\":5703:5704   */\n  0x00\n    /* \"#utility.yul\":5696:5704   */\n  swap1\n  pop\n    /* \"#utility.yul\":5637:5710   */\n  swap1\n  jump\t// out\n    /* \"#utility.yul\":5716:5905   */\ntag_38:\n    /* \"#utility.yul\":5793:5825   */\n  tag_112\n  tag_37\n  jump\t// in\ntag_112:\n    /* \"#utility.yul\":5834:5899   */\n  tag_113\n    /* \"#utility.yul\":5892:5898   */\n  dup2\n    /* \"#utility.yul\":5884:5890   */\n  dup5\n    /* \"#utility.yul\":5878:5882   */\n  dup5\n    /* \"#utility.yul\":5834:5899   */\n  tag_36\n  jump\t// in\ntag_113:\n    /* \"#utility.yul\":5769:5905   */\n  pop\n    /* \"#utility.yul\":5716:5905   */\n  pop\n  pop\n  jump\t// out\n    /* \"#utility.yul\":5911:6097   */\ntag_39:\n    /* \"#utility.yul\":5971:6091   */\ntag_115:\n    /* \"#utility.yul\":5988:5991   */\n  dup2\n    /* \"#utility.yul\":5981:5986   */\n  dup2\n    /* \"#utility.yul\":5978:5992   */\n  lt\n    /* \"#utility.yul\":5971:6091   */\n  iszero\n  tag_117\n  jumpi\n    /* \"#utility.yul\":6042:6081   */\n  tag_118\n    /* \"#utility.yul\":6079:6080   */\n  0x00\n    /* \"#utility.yul\":6072:6077   */\n  dup3\n    /* \"#utility.yul\":6042:6081   */\n  tag_38\n  jump\t// in\ntag_118:\n    /* \"#utility.yul\":6015:6016   */\n  0x01\n    /* \"#utility.yul\":6008:6013   */\n  dup2\n    /* \"#utility.yul\":6004:6017   */\n  add\n    /* \"#utility.yul\":5995:6017   */\n  swap1\n  pop\n    /* \"#utility.yul\":5971:6091   */\n  jump(tag_115)\ntag_117:\n    /* \"#utility.yul\":5911:6097   */\n  pop\n  pop\n  jump\t// out\n    /* \"#utility.yul\":6103:6646   */\ntag_40:\n    /* \"#utility.yul\":6204:6206   */\n  0x1f\n    /* \"#utility.yul\":6199:6202   */\n  dup3\n    /* \"#utility.yul\":6196:6207   */\n  gt\n    /* \"#utility.yul\":6193:6639   */\n  iszero\n  tag_120\n  jumpi\n    /* \"#utility.yul\":6238:6276   */\n  tag_121\n    /* \"#utility.yul\":6270:6275   */\n  dup2\n    /* \"#utility.yul\":6238:6276   */\n  tag_28\n  jump\t// in\ntag_121:\n    /* \"#utility.yul\":6322:6351   */\n  tag_122\n    /* \"#utility.yul\":6340:6350   */\n  dup5\n    /* \"#utility.yul\":6322:6351   */\n  tag_29\n  jump\t// in\ntag_122:\n    /* \"#utility.yul\":6312:6320   */\n  dup2\n    /* \"#utility.yul\":6308:6352   */\n  add\n    /* \"#utility.yul\":6505:6507   */\n  0x20\n    /* \"#utility.yul\":6493:6503   */\n  dup6\n    /* \"#utility.yul\":6490:6508   */\n  lt\n    /* \"#utility.yul\":6487:6536   */\n  iszero\n  tag_123\n  jumpi\n    /* \"#utility.yul\":6526:6534   */\n  dup2\n    /* \"#utility.yul\":6511:6534   */\n  swap1\n  pop\n    /* \"#utility.yul\":6487:6536   */\ntag_123:\n    /* \"#utility.yul\":6549:6629   */\n  tag_124\n    /* \"#utility.yul\":6605:6627   */\n  tag_125\n    /* \"#utility.yul\":6623:6626   */\n  dup6\n    /* \"#utility.yul\":6605:6627   */\n  tag_29\n  jump\t// in\ntag_125:\n    /* \"#utility.yul\":6595:6603   */\n  dup4\n    /* \"#utility.yul\":6591:6628   */\n  add\n    /* \"#utility.yul\":6578:6589   */\n  dup3\n    /* \"#utility.yul\":6549:6629   */\n  tag_39\n  jump\t// in\ntag_124:\n    /* \"#utility.yul\":6208:6639   */\n  pop\n  pop\n    /* \"#utility.yul\":6193:6639   */\ntag_120:\n    /* \"#utility.yul\":6103:6646   */\n  pop\n  pop\n  pop\n  jump\t// out\n    /* \"#utility.yul\":6652:6769   */\ntag_41:\n    /* \"#utility.yul\":6706:6714   */\n  0x00\n    /* \"#utility.yul\":6756:6761   */\n  dup3\n    /* \"#utility.yul\":6750:6754   */\n  dup3\n    /* \"#utility.yul\":6746:6762   */\n  shr\n    /* \"#utility.yul\":6725:6762   */\n  swap1\n  pop\n    /* \"#utility.yul\":6652:6769   */\n  swap3\n  swap2\n  pop\n  pop\n  jump\t// out\n    /* \"#utility.yul\":6775:6944   */\ntag_42:\n    /* \"#utility.yul\":6819:6825   */\n  0x00\n    /* \"#utility.yul\":6852:6903   */\n  tag_128\n    /* \"#utility.yul\":6900:6901   */\n  0x00\n    /* \"#utility.yul\":6896:6902   */\n  not\n    /* \"#utility.yul\":6888:6893   */\n  dup5\n    /* \"#utility.yul\":6885:6886   */\n  0x08\n    /* \"#utility.yul\":6881:6894   */\n  mul\n    /* \"#utility.yul\":6852:6903   */\n  tag_41\n  jump\t// in\ntag_128:\n    /* \"#utility.yul\":6848:6904   */\n  not\n    /* \"#utility.yul\":6933:6937   */\n  dup1\n    /* \"#utility.yul\":6927:6931   */\n  dup4\n    /* \"#utility.yul\":6923:6938   */\n  and\n    /* \"#utility.yul\":6913:6938   */\n  swap2\n  pop\n    /* \"#utility.yul\":6826:6944   */\n  pop\n    /* \"#utility.yul\":6775:6944   */\n  swap3\n  swap2\n  pop\n  pop\n  jump\t// out\n    /* \"#utility.yul\":6949:7244   */\ntag_43:\n    /* \"#utility.yul\":7025:7029   */\n  0x00\n    /* \"#utility.yul\":7171:7200   */\n  tag_130\n    /* \"#utility.yul\":7196:7199   */\n  dup4\n    /* \"#utility.yul\":7190:7194   */\n  dup4\n    /* \"#utility.yul\":7171:7200   */\n  tag_42\n  jump\t// in\ntag_130:\n    /* \"#utility.yul\":7163:7200   */\n  swap2\n  pop\n    /* \"#utility.yul\":7233:7236   */\n  dup3\n    /* \"#utility.yul\":7230:7231   */\n  0x02\n    /* \"#utility.yul\":7226:7237   */\n  mul\n    /* \"#utility.yul\":7220:7224   */\n  dup3\n    /* \"#utility.yul\":7217:7238   */\n  or\n    /* \"#utility.yul\":7209:7238   */\n  swap1\n  pop\n    /* \"#utility.yul\":6949:7244   */\n  swap3\n  swap2\n  pop\n  pop\n  jump\t// out\n    /* \"#utility.yul\":7249:8644   */\ntag_7:\n    /* \"#utility.yul\":7366:7403   */\n  tag_132\n    /* \"#utility.yul\":7399:7402   */\n  dup3\n    /* \"#utility.yul\":7366:7403   */\n  tag_25\n  jump\t// in\ntag_132:\n    /* \"#utility.yul\":7468:7486   */\n  0xffffffffffffffff\n    /* \"#utility.yul\":7460:7466   */\n  dup2\n    /* \"#utility.yul\":7457:7487   */\n  gt\n    /* \"#utility.yul\":7454:7510   */\n  iszero\n  tag_133\n  jumpi\n    /* \"#utility.yul\":7490:7508   */\n  tag_134\n  tag_18\n  jump\t// in\ntag_134:\n    /* \"#utility.yul\":7454:7510   */\ntag_133:\n    /* \"#utility.yul\":7534:7572   */\n  tag_135\n    /* \"#utility.yul\":7566:7570   */\n  dup3\n    /* \"#utility.yul\":7560:7571   */\n  sload\n    /* \"#utility.yul\":7534:7572   */\n  tag_27\n  jump\t// in\ntag_135:\n    /* \"#utility.yul\":7619:7686   */\n  tag_136\n    /* \"#utility.yul\":7679:7685   */\n  dup3\n    /* \"#utility.yul\":7671:7677   */\n  dup3\n    /* \"#utility.yul\":7665:7669   */\n  dup6\n    /* \"#utility.yul\":7619:7686   */\n  tag_40\n  jump\t// in\ntag_136:\n    /* \"#utility.yul\":7713:7714   */\n  0x00\n    /* \"#utility.yul\":7737:7741   */\n  0x20\n    /* \"#utility.yul\":7724:7741   */\n  swap1\n  pop\n    /* \"#utility.yul\":7769:7771   */\n  0x1f\n    /* \"#utility.yul\":7761:7767   */\n  dup4\n    /* \"#utility.yul\":7758:7772   */\n  gt\n    /* \"#utility.yul\":7786:7787   */\n  0x01\n    /* \"#utility.yul\":7781:8399   */\n  dup2\n  eq\n  tag_138\n  jumpi\n    /* \"#utility.yul\":8443:8444   */\n  0x00\n    /* \"#utility.yul\":8460:8466   */\n  dup5\n    /* \"#utility.yul\":8457:8534   */\n  iszero\n  tag_139\n  jumpi\n    /* \"#utility.yul\":8509:8518   */\n  dup3\n    /* \"#utility.yul\":8504:8507   */\n  dup8\n    /* \"#utility.yul\":8500:8519   */\n  add\n    /* \"#utility.yul\":8494:8520   */\n  mload\n    /* \"#utility.yul\":8485:8520   */\n  swap1\n  pop\n    /* \"#utility.yul\":8457:8534   */\ntag_139:\n    /* \"#utility.yul\":8560:8627   */\n  tag_140\n    /* \"#utility.yul\":8620:8626   */\n  dup6\n    /* \"#utility.yul\":8613:8618   */\n  dup3\n    /* \"#utility.yul\":8560:8627   */\n  tag_43\n  jump\t// in\ntag_140:\n    /* \"#utility.yul\":8554:8558   */\n  dup7\n    /* \"#utility.yul\":8547:8628   */\n  sstore\n    /* \"#utility.yul\":8416:8638   */\n  pop\n    /* \"#utility.yul\":7751:8638   */\n  jump(tag_137)\n    /* \"#utility.yul\":7781:8399   */\ntag_138:\n    /* \"#utility.yul\":7833:7837   */\n  0x1f\n    /* \"#utility.yul\":7829:7838   */\n  not\n    /* \"#utility.yul\":7821:7827   */\n  dup5\n    /* \"#utility.yul\":7817:7839   */\n  and\n    /* \"#utility.yul\":7867:7904   */\n  tag_141\n    /* \"#utility.yul\":7899:7903   */\n  dup7\n    /* \"#utility.yul\":7867:7904   */\n  tag_28\n  jump\t// in\ntag_141:\n    /* \"#utility.yul\":7926:7927   */\n  0x00\n    /* \"#utility.yul\":7940:8148   */\ntag_142:\n    /* \"#utility.yul\":7954:7961   */\n  dup3\n    /* \"#utility.yul\":7951:7952   */\n  dup2\n    /* \"#utility.yul\":7948:7962   */\n  lt\n    /* \"#utility.yul\":7940:8148   */\n  iszero\n  tag_144\n  jumpi\n    /* \"#utility.yul\":8033:8042   */\n  dup5\n    /* \"#utility.yul\":8028:8031   */\n  dup10\n    /* \"#utility.yul\":8024:8043   */\n  add\n    /* \"#utility.yul\":8018:8044   */\n  mload\n    /* \"#utility.yul\":8010:8016   */\n  dup3\n    /* \"#utility.yul\":8003:8045   */\n  sstore\n    /* \"#utility.yul\":8084:8085   */\n  0x01\n    /* \"#utility.yul\":8076:8082   */\n  dup3\n    /* \"#utility.yul\":8072:8086   */\n  add\n    /* \"#utility.yul\":8062:8086   */\n  swap2\n  pop\n    /* \"#utility.yul\":8131:8133   */\n  0x20\n    /* \"#utility.yul\":8120:8129   */\n  dup6\n    /* \"#utility.yul\":8116:8134   */\n  add\n    /* \"#utility.yul\":8103:8134   */\n  swap5\n  pop\n    /* \"#utility.yul\":7977:7981   */\n  0x20\n    /* \"#utility.yul\":7974:7975   */\n  dup2\n    /* \"#utility.yul\":7970:7982   */\n  add\n    /* \"#utility.yul\":7965:7982   */\n  swap1\n  pop\n    /* \"#utility.yul\":7940:8148   */\n  jump(tag_142)\ntag_144:\n    /* \"#utility.yul\":8176:8182   */\n  dup7\n    /* \"#utility.yul\":8167:8174   */\n  dup4\n    /* \"#utility.yul\":8164:8183   */\n  lt\n    /* \"#utility.yul\":8161:8340   */\n  iszero\n  tag_145\n  jumpi\n    /* \"#utility.yul\":8234:8243   */\n  dup5\n    /* \"#utility.yul\":8229:8232   */\n  dup10\n    /* \"#utility.yul\":8225:8244   */\n  add\n    /* \"#utility.yul\":8219:8245   */\n  mload\n    /* \"#utility.yul\":8277:8325   */\n  tag_146\n    /* \"#utility.yul\":8319:8323   */\n  0x1f\n    /* \"#utility.yul\":8311:8317   */\n  dup10\n    /* \"#utility.yul\":8307:8324   */\n  and\n    /* \"#utility.yul\":8296:8305   */\n  dup3\n    /* \"#utility.yul\":8277:8325   */\n  tag_42\n  jump\t// in\ntag_146:\n    /* \"#utility.yul\":8269:8275   */\n  dup4\n    /* \"#utility.yul\":8262:8326   */\n  sstore\n    /* \"#utility.yul\":8184:8340   */\n  pop\n    /* \"#utility.yul\":8161:8340   */\ntag_145:\n    /* \"#utility.yul\":8386:8387   */\n  0x01\n    /* \"#utility.yul\":8382:8383   */\n  0x02\n    /* \"#utility.yul\":8374:8380   */\n  dup9\n    /* \"#utility.yul\":8370:8384   */\n  mul\n    /* \"#utility.yul\":8366:8388   */\n  add\n    /* \"#utility.yul\":8360:8364   */\n  dup9\n    /* \"#utility.yul\":8353:8389   */\n  sstore\n    /* \"#utility.yul\":7788:8399   */\n  pop\n  pop\n  pop\n    /* \"#utility.yul\":7751:8638   */\ntag_137:\n  pop\n    /* \"#utility.yul\":7341:8644   */\n  pop\n  pop\n  pop\n    /* \"#utility.yul\":7249:8644   */\n  pop\n  pop\n  jump\t// out\n    /* \"src/contractTwo.sol\":58:487  contract Property{... */\ntag_8:\n  mload(0x80)\n  mload(0xa0)\n  codecopy(0x00, dataOffset(sub_0), dataSize(sub_0))\n  0x00\n  assignImmutable(\"0x1a192fabce13988b84994d4296e6cdc418d55e2f1d7f942188d4040b94fc57ac\")\n  0x00\n  assignImmutable(\"0x52f1a9b320cab38e5da8a8f97989383aab0a49165fc91c737310e4f7e9821021\")\n  return(0x00, dataSize(sub_0))\nstop\n\nsub_0: assembly {\n        /* \"src/contractTwo.sol\":58:487  contract Property{... */\n      mstore(0x40, 0x80)\n      callvalue\n      dup1\n      iszero\n      tag_1\n      jumpi\n      revert(0x00, 0x00)\n    tag_1:\n      pop\n      jumpi(tag_2, lt(calldatasize, 0x04))\n      shr(0xe0, calldataload(0x00))\n      dup1\n      0x516f279e\n      eq\n      tag_3\n      jumpi\n      dup1\n      0x8da5cb5b\n      eq\n      tag_4\n      jumpi\n      dup1\n      0x98d5fdca\n      eq\n      tag_5\n      jumpi\n      dup1\n      0xa035b1fe\n      eq\n      tag_6\n      jumpi\n      dup1\n      0xf7a30806\n      eq\n      tag_7\n      jumpi\n    tag_2:\n      revert(0x00, 0x00)\n        /* \"src/contractTwo.sol\":103:125  string public location */\n    tag_3:\n      tag_8\n      tag_9\n      jump\t// in\n    tag_8:\n      mload(0x40)\n      tag_10\n      swap2\n      swap1\n      tag_11\n      jump\t// in\n    tag_10:\n      mload(0x40)\n      dup1\n      swap2\n      sub\n      swap1\n      return\n        /* \"src/contractTwo.sol\":131:161  address immutable public owner */\n    tag_4:\n      tag_12\n      tag_13\n      jump\t// in\n    tag_12:\n      mload(0x40)\n      tag_14\n      swap2\n      swap1\n      tag_15\n      jump\t// in\n    tag_14:\n      mload(0x40)\n      dup1\n      swap2\n      sub\n      swap1\n      return\n        /* \"src/contractTwo.sol\":412:485  function getPrice() public view returns(int){... */\n    tag_5:\n      tag_16\n      tag_17\n      jump\t// in\n    tag_16:\n      mload(0x40)\n      tag_18\n      swap2\n      swap1\n      tag_19\n      jump\t// in\n    tag_18:\n      mload(0x40)\n      dup1\n      swap2\n      sub\n      swap1\n      return\n        /* \"src/contractTwo.sol\":81:97  int public price */\n    tag_6:\n      tag_20\n      tag_21\n      jump\t// in\n    tag_20:\n      mload(0x40)\n      tag_22\n      swap2\n      swap1\n      tag_19\n      jump\t// in\n    tag_22:\n      mload(0x40)\n      dup1\n      swap2\n      sub\n      swap1\n      return\n        /* \"src/contractTwo.sol\":340:407  function setPrice(int _price) public{... */\n    tag_7:\n      tag_23\n      0x04\n      dup1\n      calldatasize\n      sub\n      dup2\n      add\n      swap1\n      tag_24\n      swap2\n      swap1\n      tag_25\n      jump\t// in\n    tag_24:\n      tag_26\n      jump\t// in\n    tag_23:\n      stop\n        /* \"src/contractTwo.sol\":103:125  string public location */\n    tag_9:\n      0x01\n      dup1\n      sload\n      tag_27\n      swap1\n      tag_28\n      jump\t// in\n    tag_27:\n      dup1\n      0x1f\n      add\n      0x20\n      dup1\n      swap2\n      div\n      mul\n      0x20\n      add\n      mload(0x40)\n      swap1\n      dup2\n      add\n      0x40\n      mstore\n      dup1\n      swap3\n      swap2\n      swap1\n      dup2\n      dup2\n      mstore\n      0x20\n      add\n      dup3\n      dup1\n      sload\n      tag_29\n      swap1\n      tag_28\n      jump\t// in\n    tag_29:\n      dup1\n      iszero\n      tag_30\n      jumpi\n      dup1\n      0x1f\n      lt\n      tag_31\n      jumpi\n      0x0100\n      dup1\n      dup4\n      sload\n      div\n      mul\n      dup4\n      mstore\n      swap2\n      0x20\n      add\n      swap2\n      jump(tag_30)\n    tag_31:\n      dup3\n      add\n      swap2\n      swap1\n      0x00\n      mstore\n      keccak256(0x00, 0x20)\n      swap1\n    tag_32:\n      dup2\n      sload\n      dup2\n      mstore\n      swap1\n      0x01\n      add\n      swap1\n      0x20\n      add\n      dup1\n      dup4\n      gt\n      tag_32\n      jumpi\n      dup3\n      swap1\n      sub\n      0x1f\n      and\n      dup3\n      add\n      swap2\n    tag_30:\n      pop\n      pop\n      pop\n      pop\n      pop\n      dup2\n      jump\t// out\n        /* \"src/contractTwo.sol\":131:161  address immutable public owner */\n    tag_13:\n      immutable(\"0x52f1a9b320cab38e5da8a8f97989383aab0a49165fc91c737310e4f7e9821021\")\n      dup2\n      jump\t// out\n        /* \"src/contractTwo.sol\":412:485  function getPrice() public view returns(int){... */\n    tag_17:\n        /* \"src/contractTwo.sol\":452:455  int */\n      0x00\n        /* \"src/contractTwo.sol\":473:478  price */\n      sload(0x00)\n        /* \"src/contractTwo.sol\":466:478  return price */\n      swap1\n      pop\n        /* \"src/contractTwo.sol\":412:485  function getPrice() public view returns(int){... */\n      swap1\n      jump\t// out\n        /* \"src/contractTwo.sol\":81:97  int public price */\n    tag_21:\n      sload(0x00)\n      dup2\n      jump\t// out\n        /* \"src/contractTwo.sol\":340:407  function setPrice(int _price) public{... */\n    tag_26:\n        /* \"src/contractTwo.sol\":394:400  _price */\n      dup1\n        /* \"src/contractTwo.sol\":386:391  price */\n      0x00\n        /* \"src/contractTwo.sol\":386:400  price = _price */\n      dup2\n      swap1\n      sstore\n      pop\n        /* \"src/contractTwo.sol\":340:407  function setPrice(int _price) public{... */\n      pop\n      jump\t// out\n        /* \"#utility.yul\":7:106   */\n    tag_35:\n        /* \"#utility.yul\":59:65   */\n      0x00\n        /* \"#utility.yul\":93:98   */\n      dup2\n        /* \"#utility.yul\":87:99   */\n      mload\n        /* \"#utility.yul\":77:99   */\n      swap1\n      pop\n        /* \"#utility.yul\":7:106   */\n      swap2\n      swap1\n      pop\n      jump\t// out\n        /* \"#utility.yul\":112:281   */\n    tag_36:\n        /* \"#utility.yul\":196:207   */\n      0x00\n        /* \"#utility.yul\":230:236   */\n      dup3\n        /* \"#utility.yul\":225:228   */\n      dup3\n        /* \"#utility.yul\":218:237   */\n      mstore\n        /* \"#utility.yul\":270:274   */\n      0x20\n        /* \"#utility.yul\":265:268   */\n      dup3\n        /* \"#utility.yul\":261:275   */\n      add\n        /* \"#utility.yul\":246:275   */\n      swap1\n      pop\n        /* \"#utility.yul\":112:281   */\n      swap3\n      swap2\n      pop\n      pop\n      jump\t// out\n        /* \"#utility.yul\":287:426   */\n    tag_37:\n        /* \"#utility.yul\":376:382   */\n      dup3\n        /* \"#utility.yul\":371:374   */\n      dup2\n        /* \"#utility.yul\":366:369   */\n      dup4\n        /* \"#utility.yul\":360:383   */\n      mcopy\n        /* \"#utility.yul\":417:418   */\n      0x00\n        /* \"#utility.yul\":408:414   */\n      dup4\n        /* \"#utility.yul\":403:406   */\n      dup4\n        /* \"#utility.yul\":399:415   */\n      add\n        /* \"#utility.yul\":392:419   */\n      mstore\n        /* \"#utility.yul\":287:426   */\n      pop\n      pop\n      pop\n      jump\t// out\n        /* \"#utility.yul\":432:534   */\n    tag_38:\n        /* \"#utility.yul\":473:479   */\n      0x00\n        /* \"#utility.yul\":524:526   */\n      0x1f\n        /* \"#utility.yul\":520:527   */\n      not\n        /* \"#utility.yul\":515:517   */\n      0x1f\n        /* \"#utility.yul\":508:513   */\n      dup4\n        /* \"#utility.yul\":504:518   */\n      add\n        /* \"#utility.yul\":500:528   */\n      and\n        /* \"#utility.yul\":490:528   */\n      swap1\n      pop\n        /* \"#utility.yul\":432:534   */\n      swap2\n      swap1\n      pop\n      jump\t// out\n        /* \"#utility.yul\":540:917   */\n    tag_39:\n        /* \"#utility.yul\":628:631   */\n      0x00\n        /* \"#utility.yul\":656:695   */\n      tag_57\n        /* \"#utility.yul\":689:694   */\n      dup3\n        /* \"#utility.yul\":656:695   */\n      tag_35\n      jump\t// in\n    tag_57:\n        /* \"#utility.yul\":711:782   */\n      tag_58\n        /* \"#utility.yul\":775:781   */\n      dup2\n        /* \"#utility.yul\":770:773   */\n      dup6\n        /* \"#utility.yul\":711:782   */\n      tag_36\n      jump\t// in\n    tag_58:\n        /* \"#utility.yul\":704:782   */\n      swap4\n      pop\n        /* \"#utility.yul\":791:856   */\n      tag_59\n        /* \"#utility.yul\":849:855   */\n      dup2\n        /* \"#utility.yul\":844:847   */\n      dup6\n        /* \"#utility.yul\":837:841   */\n      0x20\n        /* \"#utility.yul\":830:835   */\n      dup7\n        /* \"#utility.yul\":826:842   */\n      add\n        /* \"#utility.yul\":791:856   */\n      tag_37\n      jump\t// in\n    tag_59:\n        /* \"#utility.yul\":881:910   */\n      tag_60\n        /* \"#utility.yul\":903:909   */\n      dup2\n        /* \"#utility.yul\":881:910   */\n      tag_38\n      jump\t// in\n    tag_60:\n        /* \"#utility.yul\":876:879   */\n      dup5\n        /* \"#utility.yul\":872:911   */\n      add\n        /* \"#utility.yul\":865:911   */\n      swap2\n      pop\n        /* \"#utility.yul\":632:917   */\n      pop\n        /* \"#utility.yul\":540:917   */\n      swap3\n      swap2\n      pop\n      pop\n      jump\t// out\n        /* \"#utility.yul\":923:1236   */\n    tag_11:\n        /* \"#utility.yul\":1036:1040   */\n      0x00\n        /* \"#utility.yul\":1074:1076   */\n      0x20\n        /* \"#utility.yul\":1063:1072   */\n      dup3\n        /* \"#utility.yul\":1059:1077   */\n      add\n        /* \"#utility.yul\":1051:1077   */\n      swap1\n      pop\n        /* \"#utility.yul\":1123:1132   */\n      dup2\n        /* \"#utility.yul\":1117:1121   */\n      dup2\n        /* \"#utility.yul\":1113:1133   */\n      sub\n        /* \"#utility.yul\":1109:1110   */\n      0x00\n        /* \"#utility.yul\":1098:1107   */\n      dup4\n        /* \"#utility.yul\":1094:1111   */\n      add\n        /* \"#utility.yul\":1087:1134   */\n      mstore\n        /* \"#utility.yul\":1151:1229   */\n      tag_62\n        /* \"#utility.yul\":1224:1228   */\n      dup2\n        /* \"#utility.yul\":1215:1221   */\n      dup5\n        /* \"#utility.yul\":1151:1229   */\n      tag_39\n      jump\t// in\n    tag_62:\n        /* \"#utility.yul\":1143:1229   */\n      swap1\n      pop\n        /* \"#utility.yul\":923:1236   */\n      swap3\n      swap2\n      pop\n      pop\n      jump\t// out\n        /* \"#utility.yul\":1242:1368   */\n    tag_40:\n        /* \"#utility.yul\":1279:1286   */\n      0x00\n        /* \"#utility.yul\":1319:1361   */\n      0xffffffffffffffffffffffffffffffffffffffff\n        /* \"#utility.yul\":1312:1317   */\n      dup3\n        /* \"#utility.yul\":1308:1362   */\n      and\n        /* \"#utility.yul\":1297:1362   */\n      swap1\n      pop\n        /* \"#utility.yul\":1242:1368   */\n      swap2\n      swap1\n      pop\n      jump\t// out\n        /* \"#utility.yul\":1374:1470   */\n    tag_41:\n        /* \"#utility.yul\":1411:1418   */\n      0x00\n        /* \"#utility.yul\":1440:1464   */\n      tag_65\n        /* \"#utility.yul\":1458:1463   */\n      dup3\n        /* \"#utility.yul\":1440:1464   */\n      tag_40\n      jump\t// in\n    tag_65:\n        /* \"#utility.yul\":1429:1464   */\n      swap1\n      pop\n        /* \"#utility.yul\":1374:1470   */\n      swap2\n      swap1\n      pop\n      jump\t// out\n        /* \"#utility.yul\":1476:1594   */\n    tag_42:\n        /* \"#utility.yul\":1563:1587   */\n      tag_67\n        /* \"#utility.yul\":1581:1586   */\n      dup2\n        /* \"#utility.yul\":1563:1587   */\n      tag_41\n      jump\t// in\n    tag_67:\n        /* \"#utility.yul\":1558:1561   */\n      dup3\n        /* \"#utility.yul\":1551:1588   */\n      mstore\n        /* \"#utility.yul\":1476:1594   */\n      pop\n      pop\n      jump\t// out\n        /* \"#utility.yul\":1600:1822   */\n    tag_15:\n        /* \"#utility.yul\":1693:1697   */\n      0x00\n        /* \"#utility.yul\":1731:1733   */\n      0x20\n        /* \"#utility.yul\":1720:1729   */\n      dup3\n        /* \"#utility.yul\":1716:1734   */\n      add\n        /* \"#utility.yul\":1708:1734   */\n      swap1\n      pop\n        /* \"#utility.yul\":1744:1815   */\n      tag_69\n        /* \"#utility.yul\":1812:1813   */\n      0x00\n        /* \"#utility.yul\":1801:1810   */\n      dup4\n        /* \"#utility.yul\":1797:1814   */\n      add\n        /* \"#utility.yul\":1788:1794   */\n      dup5\n        /* \"#utility.yul\":1744:1815   */\n      tag_42\n      jump\t// in\n    tag_69:\n        /* \"#utility.yul\":1600:1822   */\n      swap3\n      swap2\n      pop\n      pop\n      jump\t// out\n        /* \"#utility.yul\":1828:1904   */\n    tag_43:\n        /* \"#utility.yul\":1864:1871   */\n      0x00\n        /* \"#utility.yul\":1893:1898   */\n      dup2\n        /* \"#utility.yul\":1882:1898   */\n      swap1\n      pop\n        /* \"#utility.yul\":1828:1904   */\n      swap2\n      swap1\n      pop\n      jump\t// out\n        /* \"#utility.yul\":1910:2025   */\n    tag_44:\n        /* \"#utility.yul\":1995:2018   */\n      tag_72\n        /* \"#utility.yul\":2012:2017   */\n      dup2\n        /* \"#utility.yul\":1995:2018   */\n      tag_43\n      jump\t// in\n    tag_72:\n        /* \"#utility.yul\":1990:1993   */\n      dup3\n        /* \"#utility.yul\":1983:2019   */\n      mstore\n        /* \"#utility.yul\":1910:2025   */\n      pop\n      pop\n      jump\t// out\n        /* \"#utility.yul\":2031:2249   */\n    tag_19:\n        /* \"#utility.yul\":2122:2126   */\n      0x00\n        /* \"#utility.yul\":2160:2162   */\n      0x20\n        /* \"#utility.yul\":2149:2158   */\n      dup3\n        /* \"#utility.yul\":2145:2163   */\n      add\n        /* \"#utility.yul\":2137:2163   */\n      swap1\n      pop\n        /* \"#utility.yul\":2173:2242   */\n      tag_74\n        /* \"#utility.yul\":2239:2240   */\n      0x00\n        /* \"#utility.yul\":2228:2237   */\n      dup4\n        /* \"#utility.yul\":2224:2241   */\n      add\n        /* \"#utility.yul\":2215:2221   */\n      dup5\n        /* \"#utility.yul\":2173:2242   */\n      tag_44\n      jump\t// in\n    tag_74:\n        /* \"#utility.yul\":2031:2249   */\n      swap3\n      swap2\n      pop\n      pop\n      jump\t// out\n        /* \"#utility.yul\":2336:2453   */\n    tag_46:\n        /* \"#utility.yul\":2445:2446   */\n      0x00\n        /* \"#utility.yul\":2442:2443   */\n      0x00\n        /* \"#utility.yul\":2435:2447   */\n      revert\n        /* \"#utility.yul\":2582:2702   */\n    tag_48:\n        /* \"#utility.yul\":2654:2677   */\n      tag_79\n        /* \"#utility.yul\":2671:2676   */\n      dup2\n        /* \"#utility.yul\":2654:2677   */\n      tag_43\n      jump\t// in\n    tag_79:\n        /* \"#utility.yul\":2647:2652   */\n      dup2\n        /* \"#utility.yul\":2644:2678   */\n      eq\n        /* \"#utility.yul\":2634:2696   */\n      tag_80\n      jumpi\n        /* \"#utility.yul\":2692:2693   */\n      0x00\n        /* \"#utility.yul\":2689:2690   */\n      0x00\n        /* \"#utility.yul\":2682:2694   */\n      revert\n        /* \"#utility.yul\":2634:2696   */\n    tag_80:\n        /* \"#utility.yul\":2582:2702   */\n      pop\n      jump\t// out\n        /* \"#utility.yul\":2708:2845   */\n    tag_49:\n        /* \"#utility.yul\":2753:2758   */\n      0x00\n        /* \"#utility.yul\":2791:2797   */\n      dup2\n        /* \"#utility.yul\":2778:2798   */\n      calldataload\n        /* \"#utility.yul\":2769:2798   */\n      swap1\n      pop\n        /* \"#utility.yul\":2807:2839   */\n      tag_82\n        /* \"#utility.yul\":2833:2838   */\n      dup2\n        /* \"#utility.yul\":2807:2839   */\n      tag_48\n      jump\t// in\n    tag_82:\n        /* \"#utility.yul\":2708:2845   */\n      swap3\n      swap2\n      pop\n      pop\n      jump\t// out\n        /* \"#utility.yul\":2851:3178   */\n    tag_25:\n        /* \"#utility.yul\":2909:2915   */\n      0x00\n        /* \"#utility.yul\":2958:2960   */\n      0x20\n        /* \"#utility.yul\":2946:2955   */\n      dup3\n        /* \"#utility.yul\":2937:2944   */\n      dup5\n        /* \"#utility.yul\":2933:2956   */\n      sub\n        /* \"#utility.yul\":2929:2961   */\n      slt\n        /* \"#utility.yul\":2926:3045   */\n      iszero\n      tag_84\n      jumpi\n        /* \"#utility.yul\":2964:3043   */\n      tag_85\n      tag_46\n      jump\t// in\n    tag_85:\n        /* \"#utility.yul\":2926:3045   */\n    tag_84:\n        /* \"#utility.yul\":3084:3085   */\n      0x00\n        /* \"#utility.yul\":3109:3161   */\n      tag_86\n        /* \"#utility.yul\":3153:3160   */\n      dup5\n        /* \"#utility.yul\":3144:3150   */\n      dup3\n        /* \"#utility.yul\":3133:3142   */\n      dup6\n        /* \"#utility.yul\":3129:3151   */\n      add\n        /* \"#utility.yul\":3109:3161   */\n      tag_49\n      jump\t// in\n    tag_86:\n        /* \"#utility.yul\":3099:3161   */\n      swap2\n      pop\n        /* \"#utility.yul\":3055:3171   */\n      pop\n        /* \"#utility.yul\":2851:3178   */\n      swap3\n      swap2\n      pop\n      pop\n      jump\t// out\n        /* \"#utility.yul\":3184:3364   */\n    tag_50:\n        /* \"#utility.yul\":3232:3309   */\n      0x4e487b7100000000000000000000000000000000000000000000000000000000\n        /* \"#utility.yul\":3229:3230   */\n      0x00\n        /* \"#utility.yul\":3222:3310   */\n      mstore\n        /* \"#utility.yul\":3329:3333   */\n      0x22\n        /* \"#utility.yul\":3326:3327   */\n      0x04\n        /* \"#utility.yul\":3319:3334   */\n      mstore\n        /* \"#utility.yul\":3353:3357   */\n      0x24\n        /* \"#utility.yul\":3350:3351   */\n      0x00\n        /* \"#utility.yul\":3343:3358   */\n      revert\n        /* \"#utility.yul\":3370:3690   */\n    tag_28:\n        /* \"#utility.yul\":3414:3420   */\n      0x00\n        /* \"#utility.yul\":3451:3452   */\n      0x02\n        /* \"#utility.yul\":3445:3449   */\n      dup3\n        /* \"#utility.yul\":3441:3453   */\n      div\n        /* \"#utility.yul\":3431:3453   */\n      swap1\n      pop\n        /* \"#utility.yul\":3498:3499   */\n      0x01\n        /* \"#utility.yul\":3492:3496   */\n      dup3\n        /* \"#utility.yul\":3488:3500   */\n      and\n        /* \"#utility.yul\":3519:3537   */\n      dup1\n        /* \"#utility.yul\":3509:3590   */\n      tag_89\n      jumpi\n        /* \"#utility.yul\":3575:3579   */\n      0x7f\n        /* \"#utility.yul\":3567:3573   */\n      dup3\n        /* \"#utility.yul\":3563:3580   */\n      and\n        /* \"#utility.yul\":3553:3580   */\n      swap2\n      pop\n        /* \"#utility.yul\":3509:3590   */\n    tag_89:\n        /* \"#utility.yul\":3637:3639   */\n      0x20\n        /* \"#utility.yul\":3629:3635   */\n      dup3\n        /* \"#utility.yul\":3626:3640   */\n      lt\n        /* \"#utility.yul\":3606:3624   */\n      dup2\n        /* \"#utility.yul\":3603:3641   */\n      sub\n        /* \"#utility.yul\":3600:3684   */\n      tag_90\n      jumpi\n        /* \"#utility.yul\":3656:3674   */\n      tag_91\n      tag_50\n      jump\t// in\n    tag_91:\n        /* \"#utility.yul\":3600:3684   */\n    tag_90:\n        /* \"#utility.yul\":3421:3690   */\n      pop\n        /* \"#utility.yul\":3370:3690   */\n      swap2\n      swap1\n      pop\n      jump\t// out\n\n    auxdata: 0xa2646970667358221220038d99452763bf6c4102a9e146dc8be7588935beff375e2b0f8b034fb2ce841564736f6c634300081c0033\n}\n",
				"bytecode": {
					"linkReferences": {},
					"object": "60c0604052606460a090815250348015610017575f5ffd5b506040516109193803806109198339818101604052810190610039919061020a565b815f81905550806001908161004e9190610474565b503373ffffffffffffffffffffffffffffffffffffffff1660808173ffffffffffffffffffffffffffffffffffffffff16815250505050610543565b5f604051905090565b5f5ffd5b5f5ffd5b5f819050919050565b6100ad8161009b565b81146100b7575f5ffd5b50565b5f815190506100c8816100a4565b92915050565b5f5ffd5b5f5ffd5b5f601f19601f8301169050919050565b7f4e487b71000000000000000000000000000000000000000000000000000000005f52604160045260245ffd5b61011c826100d6565b810181811067ffffffffffffffff8211171561013b5761013a6100e6565b5b80604052505050565b5f61014d61008a565b90506101598282610113565b919050565b5f67ffffffffffffffff821115610178576101776100e6565b5b610181826100d6565b9050602081019050919050565b8281835e5f83830152505050565b5f6101ae6101a98461015e565b610144565b9050828152602081018484840111156101ca576101c96100d2565b5b6101d584828561018e565b509392505050565b5f82601f8301126101f1576101f06100ce565b5b815161020184826020860161019c565b91505092915050565b5f5f604083850312156102205761021f610093565b5b5f61022d858286016100ba565b925050602083015167ffffffffffffffff81111561024e5761024d610097565b5b61025a858286016101dd565b9150509250929050565b5f81519050919050565b7f4e487b71000000000000000000000000000000000000000000000000000000005f52602260045260245ffd5b5f60028204905060018216806102b257607f821691505b6020821081036102c5576102c461026e565b5b50919050565b5f819050815f5260205f209050919050565b5f6020601f8301049050919050565b5f82821b905092915050565b5f600883026103277fffffffffffffffffffffffffffffffffffffffffffffffffffffffffffffffff826102ec565b61033186836102ec565b95508019841693508086168417925050509392505050565b5f819050919050565b5f819050919050565b5f61037561037061036b84610349565b610352565b610349565b9050919050565b5f819050919050565b61038e8361035b565b6103a261039a8261037c565b8484546102f8565b825550505050565b5f5f905090565b6103b96103aa565b6103c4818484610385565b505050565b5b818110156103e7576103dc5f826103b1565b6001810190506103ca565b5050565b601f82111561042c576103fd816102cb565b610406846102dd565b81016020851015610415578190505b610429610421856102dd565b8301826103c9565b50505b505050565b5f82821c905092915050565b5f61044c5f1984600802610431565b1980831691505092915050565b5f610464838361043d565b9150826002028217905092915050565b61047d82610264565b67ffffffffffffffff811115610496576104956100e6565b5b6104a0825461029b565b6104ab8282856103eb565b5f60209050601f8311600181146104dc575f84156104ca578287015190505b6104d48582610459565b86555061053b565b601f1984166104ea866102cb565b5f5b82811015610511578489015182556001820191506020850194506020810190506104ec565b8683101561052e578489015161052a601f89168261043d565b8355505b6001600288020188555050505b505050505050565b60805160a0516103b86105615f395f50505f61017b01526103b85ff3fe608060405234801561000f575f5ffd5b5060043610610055575f3560e01c8063516f279e146100595780638da5cb5b1461007757806398d5fdca14610095578063a035b1fe146100b3578063f7a30806146100d1575b5f5ffd5b6100616100ed565b60405161006e9190610223565b60405180910390f35b61007f610179565b60405161008c9190610282565b60405180910390f35b61009d61019d565b6040516100aa91906102b3565b60405180910390f35b6100bb6101a5565b6040516100c891906102b3565b60405180910390f35b6100eb60048036038101906100e691906102fa565b6101aa565b005b600180546100fa90610352565b80601f016020809104026020016040519081016040528092919081815260200182805461012690610352565b80156101715780601f1061014857610100808354040283529160200191610171565b820191905f5260205f20905b81548152906001019060200180831161015457829003601f168201915b505050505081565b7f000000000000000000000000000000000000000000000000000000000000000081565b5f5f54905090565b5f5481565b805f8190555050565b5f81519050919050565b5f82825260208201905092915050565b8281835e5f83830152505050565b5f601f19601f8301169050919050565b5f6101f5826101b3565b6101ff81856101bd565b935061020f8185602086016101cd565b610218816101db565b840191505092915050565b5f6020820190508181035f83015261023b81846101eb565b905092915050565b5f73ffffffffffffffffffffffffffffffffffffffff82169050919050565b5f61026c82610243565b9050919050565b61027c81610262565b82525050565b5f6020820190506102955f830184610273565b92915050565b5f819050919050565b6102ad8161029b565b82525050565b5f6020820190506102c65f8301846102a4565b92915050565b5f5ffd5b6102d98161029b565b81146102e3575f5ffd5b50565b5f813590506102f4816102d0565b92915050565b5f6020828403121561030f5761030e6102cc565b5b5f61031c848285016102e6565b91505092915050565b7f4e487b71000000000000000000000000000000000000000000000000000000005f52602260045260245ffd5b5f600282049050600182168061036957607f821691505b60208210810361037c5761037b610325565b5b5091905056fea2646970667358221220038d99452763bf6c4102a9e146dc8be7588935beff375e2b0f8b034fb2ce841564736f6c634300081c0033",
					"opcodes": "PUSH1 0xC0 PUSH1 0x40 MSTORE PUSH1 0x64 PUSH1 0xA0 SWAP1 DUP2 MSTORE POP CALLVALUE DUP1 ISZERO PUSH2 0x17 JUMPI PUSH0 PUSH0 REVERT JUMPDEST POP PUSH1 0x40 MLOAD PUSH2 0x919 CODESIZE SUB DUP1 PUSH2 0x919 DUP4 CODECOPY DUP2 DUP2 ADD PUSH1 0x40 MSTORE DUP2 ADD SWAP1 PUSH2 0x39 SWAP2 SWAP1 PUSH2 0x20A JUMP JUMPDEST DUP2 PUSH0 DUP2 SWAP1 SSTORE POP DUP1 PUSH1 0x1 SWAP1 DUP2 PUSH2 0x4E SWAP2 SWAP1 PUSH2 0x474 JUMP JUMPDEST POP CALLER PUSH20 0xFFFFFFFFFFFFFFFFFFFFFFFFFFFFFFFFFFFFFFFF AND PUSH1 0x80 DUP2 PUSH20 0xFFFFFFFFFFFFFFFFFFFFFFFFFFFFFFFFFFFFFFFF AND DUP2 MSTORE POP POP POP POP PUSH2 0x543 JUMP JUMPDEST PUSH0 PUSH1 0x40 MLOAD SWAP1 POP SWAP1 JUMP JUMPDEST PUSH0 PUSH0 REVERT JUMPDEST PUSH0 PUSH0 REVERT JUMPDEST PUSH0 DUP2 SWAP1 POP SWAP2 SWAP1 POP JUMP JUMPDEST PUSH2 0xAD DUP2 PUSH2 0x9B JUMP JUMPDEST DUP2 EQ PUSH2 0xB7 JUMPI PUSH0 PUSH0 REVERT JUMPDEST POP JUMP JUMPDEST PUSH0 DUP2 MLOAD SWAP1 POP PUSH2 0xC8 DUP2 PUSH2 0xA4 JUMP JUMPDEST SWAP3 SWAP2 POP POP JUMP JUMPDEST PUSH0 PUSH0 REVERT JUMPDEST PUSH0 PUSH0 REVERT JUMPDEST PUSH0 PUSH1 0x1F NOT PUSH1 0x1F DUP4 ADD AND SWAP1 POP SWAP2 SWAP1 POP JUMP JUMPDEST PUSH32 0x4E487B7100000000000000000000000000000000000000000000000000000000 PUSH0 MSTORE PUSH1 0x41 PUSH1 0x4 MSTORE PUSH1 0x24 PUSH0 REVERT JUMPDEST PUSH2 0x11C DUP3 PUSH2 0xD6 JUMP JUMPDEST DUP2 ADD DUP2 DUP2 LT PUSH8 0xFFFFFFFFFFFFFFFF DUP3 GT OR ISZERO PUSH2 0x13B JUMPI PUSH2 0x13A PUSH2 0xE6 JUMP JUMPDEST JUMPDEST DUP1 PUSH1 0x40 MSTORE POP POP POP JUMP JUMPDEST PUSH0 PUSH2 0x14D PUSH2 0x8A JUMP JUMPDEST SWAP1 POP PUSH2 0x159 DUP3 DUP3 PUSH2 0x113 JUMP JUMPDEST SWAP2 SWAP1 POP JUMP JUMPDEST PUSH0 PUSH8 0xFFFFFFFFFFFFFFFF DUP3 GT ISZERO PUSH2 0x178 JUMPI PUSH2 0x177 PUSH2 0xE6 JUMP JUMPDEST JUMPDEST PUSH2 0x181 DUP3 PUSH2 0xD6 JUMP JUMPDEST SWAP1 POP PUSH1 0x20 DUP2 ADD SWAP1 POP SWAP2 SWAP1 POP JUMP JUMPDEST DUP3 DUP2 DUP4 MCOPY PUSH0 DUP4 DUP4 ADD MSTORE POP POP POP JUMP JUMPDEST PUSH0 PUSH2 0x1AE PUSH2 0x1A9 DUP5 PUSH2 0x15E JUMP JUMPDEST PUSH2 0x144 JUMP JUMPDEST SWAP1 POP DUP3 DUP2 MSTORE PUSH1 0x20 DUP2 ADD DUP5 DUP5 DUP5 ADD GT ISZERO PUSH2 0x1CA JUMPI PUSH2 0x1C9 PUSH2 0xD2 JUMP JUMPDEST JUMPDEST PUSH2 0x1D5 DUP5 DUP3 DUP6 PUSH2 0x18E JUMP JUMPDEST POP SWAP4 SWAP3 POP POP POP JUMP JUMPDEST PUSH0 DUP3 PUSH1 0x1F DUP4 ADD SLT PUSH2 0x1F1 JUMPI PUSH2 0x1F0 PUSH2 0xCE JUMP JUMPDEST JUMPDEST DUP2 MLOAD PUSH2 0x201 DUP5 DUP3 PUSH1 0x20 DUP7 ADD PUSH2 0x19C JUMP JUMPDEST SWAP2 POP POP SWAP3 SWAP2 POP POP JUMP JUMPDEST PUSH0 PUSH0 PUSH1 0x40 DUP4 DUP6 SUB SLT ISZERO PUSH2 0x220 JUMPI PUSH2 0x21F PUSH2 0x93 JUMP JUMPDEST JUMPDEST PUSH0 PUSH2 0x22D DUP6 DUP3 DUP7 ADD PUSH2 0xBA JUMP JUMPDEST SWAP3 POP POP PUSH1 0x20 DUP4 ADD MLOAD PUSH8 0xFFFFFFFFFFFFFFFF DUP2 GT ISZERO PUSH2 0x24E JUMPI PUSH2 0x24D PUSH2 0x97 JUMP JUMPDEST JUMPDEST PUSH2 0x25A DUP6 DUP3 DUP7 ADD PUSH2 0x1DD JUMP JUMPDEST SWAP2 POP POP SWAP3 POP SWAP3 SWAP1 POP JUMP JUMPDEST PUSH0 DUP2 MLOAD SWAP1 POP SWAP2 SWAP1 POP JUMP JUMPDEST PUSH32 0x4E487B7100000000000000000000000000000000000000000000000000000000 PUSH0 MSTORE PUSH1 0x22 PUSH1 0x4 MSTORE PUSH1 0x24 PUSH0 REVERT JUMPDEST PUSH0 PUSH1 0x2 DUP3 DIV SWAP1 POP PUSH1 0x1 DUP3 AND DUP1 PUSH2 0x2B2 JUMPI PUSH1 0x7F DUP3 AND SWAP2 POP JUMPDEST PUSH1 0x20 DUP3 LT DUP2 SUB PUSH2 0x2C5 JUMPI PUSH2 0x2C4 PUSH2 0x26E JUMP JUMPDEST JUMPDEST POP SWAP2 SWAP1 POP JUMP JUMPDEST PUSH0 DUP2 SWAP1 POP DUP2 PUSH0 MSTORE PUSH1 0x20 PUSH0 KECCAK256 SWAP1 POP SWAP2 SWAP1 POP JUMP JUMPDEST PUSH0 PUSH1 0x20 PUSH1 0x1F DUP4 ADD DIV SWAP1 POP SWAP2 SWAP1 POP JUMP JUMPDEST PUSH0 DUP3 DUP3 SHL SWAP1 POP SWAP3 SWAP2 POP POP JUMP JUMPDEST PUSH0 PUSH1 0x8 DUP4 MUL PUSH2 0x327 PUSH32 0xFFFFFFFFFFFFFFFFFFFFFFFFFFFFFFFFFFFFFFFFFFFFFFFFFFFFFFFFFFFFFFFF DUP3 PUSH2 0x2EC JUMP JUMPDEST PUSH2 0x331 DUP7 DUP4 PUSH2 0x2EC JUMP JUMPDEST SWAP6 POP DUP1 NOT DUP5 AND SWAP4 POP DUP1 DUP7 AND DUP5 OR SWAP3 POP POP POP SWAP4 SWAP3 POP POP POP JUMP JUMPDEST PUSH0 DUP2 SWAP1 POP SWAP2 SWAP1 POP JUMP JUMPDEST PUSH0 DUP2 SWAP1 POP SWAP2 SWAP1 POP JUMP JUMPDEST PUSH0 PUSH2 0x375 PUSH2 0x370 PUSH2 0x36B DUP5 PUSH2 0x349 JUMP JUMPDEST PUSH2 0x352 JUMP JUMPDEST PUSH2 0x349 JUMP JUMPDEST SWAP1 POP SWAP2 SWAP1 POP JUMP JUMPDEST PUSH0 DUP2 SWAP1 POP SWAP2 SWAP1 POP JUMP JUMPDEST PUSH2 0x38E DUP4 PUSH2 0x35B JUMP JUMPDEST PUSH2 0x3A2 PUSH2 0x39A DUP3 PUSH2 0x37C JUMP JUMPDEST DUP5 DUP5 SLOAD PUSH2 0x2F8 JUMP JUMPDEST DUP3 SSTORE POP POP POP POP JUMP JUMPDEST PUSH0 PUSH0 SWAP1 POP SWAP1 JUMP JUMPDEST PUSH2 0x3B9 PUSH2 0x3AA JUMP JUMPDEST PUSH2 0x3C4 DUP2 DUP5 DUP5 PUSH2 0x385 JUMP JUMPDEST POP POP POP JUMP JUMPDEST JUMPDEST DUP2 DUP2 LT ISZERO PUSH2 0x3E7 JUMPI PUSH2 0x3DC PUSH0 DUP3 PUSH2 0x3B1 JUMP JUMPDEST PUSH1 0x1 DUP2 ADD SWAP1 POP PUSH2 0x3CA JUMP JUMPDEST POP POP JUMP JUMPDEST PUSH1 0x1F DUP3 GT ISZERO PUSH2 0x42C JUMPI PUSH2 0x3FD DUP2 PUSH2 0x2CB JUMP JUMPDEST PUSH2 0x406 DUP5 PUSH2 0x2DD JUMP JUMPDEST DUP2 ADD PUSH1 0x20 DUP6 LT ISZERO PUSH2 0x415 JUMPI DUP2 SWAP1 POP JUMPDEST PUSH2 0x429 PUSH2 0x421 DUP6 PUSH2 0x2DD JUMP JUMPDEST DUP4 ADD DUP3 PUSH2 0x3C9 JUMP JUMPDEST POP POP JUMPDEST POP POP POP JUMP JUMPDEST PUSH0 DUP3 DUP3 SHR SWAP1 POP SWAP3 SWAP2 POP POP JUMP JUMPDEST PUSH0 PUSH2 0x44C PUSH0 NOT DUP5 PUSH1 0x8 MUL PUSH2 0x431 JUMP JUMPDEST NOT DUP1 DUP4 AND SWAP2 POP POP SWAP3 SWAP2 POP POP JUMP JUMPDEST PUSH0 PUSH2 0x464 DUP4 DUP4 PUSH2 0x43D JUMP JUMPDEST SWAP2 POP DUP3 PUSH1 0x2 MUL DUP3 OR SWAP1 POP SWAP3 SWAP2 POP POP JUMP JUMPDEST PUSH2 0x47D DUP3 PUSH2 0x264 JUMP JUMPDEST PUSH8 0xFFFFFFFFFFFFFFFF DUP2 GT ISZERO PUSH2 0x496 JUMPI PUSH2 0x495 PUSH2 0xE6 JUMP JUMPDEST JUMPDEST PUSH2 0x4A0 DUP3 SLOAD PUSH2 0x29B JUMP JUMPDEST PUSH2 0x4AB DUP3 DUP3 DUP6 PUSH2 0x3EB JUMP JUMPDEST PUSH0 PUSH1 0x20 SWAP1 POP PUSH1 0x1F DUP4 GT PUSH1 0x1 DUP2 EQ PUSH2 0x4DC JUMPI PUSH0 DUP5 ISZERO PUSH2 0x4CA JUMPI DUP3 DUP8 ADD MLOAD SWAP1 POP JUMPDEST PUSH2 0x4D4 DUP6 DUP3 PUSH2 0x459 JUMP JUMPDEST DUP7 SSTORE POP PUSH2 0x53B JUMP JUMPDEST PUSH1 0x1F NOT DUP5 AND PUSH2 0x4EA DUP7 PUSH2 0x2CB JUMP JUMPDEST PUSH0 JUMPDEST DUP3 DUP2 LT ISZERO PUSH2 0x511 JUMPI DUP5 DUP10 ADD MLOAD DUP3 SSTORE PUSH1 0x1 DUP3 ADD SWAP2 POP PUSH1 0x20 DUP6 ADD SWAP5 POP PUSH1 0x20 DUP2 ADD SWAP1 POP PUSH2 0x4EC JUMP JUMPDEST DUP7 DUP4 LT ISZERO PUSH2 0x52E JUMPI DUP5 DUP10 ADD MLOAD PUSH2 0x52A PUSH1 0x1F DUP10 AND DUP3 PUSH2 0x43D JUMP JUMPDEST DUP4 SSTORE POP JUMPDEST PUSH1 0x1 PUSH1 0x2 DUP9 MUL ADD DUP9 SSTORE POP POP POP JUMPDEST POP POP POP POP POP POP JUMP JUMPDEST PUSH1 0x80 MLOAD PUSH1 0xA0 MLOAD PUSH2 0x3B8 PUSH2 0x561 PUSH0 CODECOPY PUSH0 POP POP PUSH0 PUSH2 0x17B ADD MSTORE PUSH2 0x3B8 PUSH0 RETURN INVALID PUSH1 0x80 PUSH1 0x40 MSTORE CALLVALUE DUP1 ISZERO PUSH2 0xF JUMPI PUSH0 PUSH0 REVERT JUMPDEST POP PUSH1 0x4 CALLDATASIZE LT PUSH2 0x55 JUMPI PUSH0 CALLDATALOAD PUSH1 0xE0 SHR DUP1 PUSH4 0x516F279E EQ PUSH2 0x59 JUMPI DUP1 PUSH4 0x8DA5CB5B EQ PUSH2 0x77 JUMPI DUP1 PUSH4 0x98D5FDCA EQ PUSH2 0x95 JUMPI DUP1 PUSH4 0xA035B1FE EQ PUSH2 0xB3 JUMPI DUP1 PUSH4 0xF7A30806 EQ PUSH2 0xD1 JUMPI JUMPDEST PUSH0 PUSH0 REVERT JUMPDEST PUSH2 0x61 PUSH2 0xED JUMP JUMPDEST PUSH1 0x40 MLOAD PUSH2 0x6E SWAP2 SWAP1 PUSH2 0x223 JUMP JUMPDEST PUSH1 0x40 MLOAD DUP1 SWAP2 SUB SWAP1 RETURN JUMPDEST PUSH2 0x7F PUSH2 0x179 JUMP JUMPDEST PUSH1 0x40 MLOAD PUSH2 0x8C SWAP2 SWAP1 PUSH2 0x282 JUMP JUMPDEST PUSH1 0x40 MLOAD DUP1 SWAP2 SUB SWAP1 RETURN JUMPDEST PUSH2 0x9D PUSH2 0x19D JUMP JUMPDEST PUSH1 0x40 MLOAD PUSH2 0xAA SWAP2 SWAP1 PUSH2 0x2B3 JUMP JUMPDEST PUSH1 0x40 MLOAD DUP1 SWAP2 SUB SWAP1 RETURN JUMPDEST PUSH2 0xBB PUSH2 0x1A5 JUMP JUMPDEST PUSH1 0x40 MLOAD PUSH2 0xC8 SWAP2 SWAP1 PUSH2 0x2B3 JUMP JUMPDEST PUSH1 0x40 MLOAD DUP1 SWAP2 SUB SWAP1 RETURN JUMPDEST PUSH2 0xEB PUSH1 0x4 DUP1 CALLDATASIZE SUB DUP2 ADD SWAP1 PUSH2 0xE6 SWAP2 SWAP1 PUSH2 0x2FA JUMP JUMPDEST PUSH2 0x1AA JUMP JUMPDEST STOP JUMPDEST PUSH1 0x1 DUP1 SLOAD PUSH2 0xFA SWAP1 PUSH2 0x352 JUMP JUMPDEST DUP1 PUSH1 0x1F ADD PUSH1 0x20 DUP1 SWAP2 DIV MUL PUSH1 0x20 ADD PUSH1 0x40 MLOAD SWAP1 DUP2 ADD PUSH1 0x40 MSTORE DUP1 SWAP3 SWAP2 SWAP1 DUP2 DUP2 MSTORE PUSH1 0x20 ADD DUP3 DUP1 SLOAD PUSH2 0x126 SWAP1 PUSH2 0x352 JUMP JUMPDEST DUP1 ISZERO PUSH2 0x171 JUMPI DUP1 PUSH1 0x1F LT PUSH2 0x148 JUMPI PUSH2 0x100 DUP1 DUP4 SLOAD DIV MUL DUP4 MSTORE SWAP2 PUSH1 0x20 ADD SWAP2 PUSH2 0x171 JUMP JUMPDEST DUP3 ADD SWAP2 SWAP1 PUSH0 MSTORE PUSH1 0x20 PUSH0 KECCAK256 SWAP1 JUMPDEST DUP2 SLOAD DUP2 MSTORE SWAP1 PUSH1 0x1 ADD SWAP1 PUSH1 0x20 ADD DUP1 DUP4 GT PUSH2 0x154 JUMPI DUP3 SWAP1 SUB PUSH1 0x1F AND DUP3 ADD SWAP2 JUMPDEST POP POP POP POP POP DUP2 JUMP JUMPDEST PUSH32 0x0 DUP2 JUMP JUMPDEST PUSH0 PUSH0 SLOAD SWAP1 POP SWAP1 JUMP JUMPDEST PUSH0 SLOAD DUP2 JUMP JUMPDEST DUP1 PUSH0 DUP2 SWAP1 SSTORE POP POP JUMP JUMPDEST PUSH0 DUP2 MLOAD SWAP1 POP SWAP2 SWAP1 POP JUMP JUMPDEST PUSH0 DUP3 DUP3 MSTORE PUSH1 0x20 DUP3 ADD SWAP1 POP SWAP3 SWAP2 POP POP JUMP JUMPDEST DUP3 DUP2 DUP4 MCOPY PUSH0 DUP4 DUP4 ADD MSTORE POP POP POP JUMP JUMPDEST PUSH0 PUSH1 0x1F NOT PUSH1 0x1F DUP4 ADD AND SWAP1 POP SWAP2 SWAP1 POP JUMP JUMPDEST PUSH0 PUSH2 0x1F5 DUP3 PUSH2 0x1B3 JUMP JUMPDEST PUSH2 0x1FF DUP2 DUP6 PUSH2 0x1BD JUMP JUMPDEST SWAP4 POP PUSH2 0x20F DUP2 DUP6 PUSH1 0x20 DUP7 ADD PUSH2 0x1CD JUMP JUMPDEST PUSH2 0x218 DUP2 PUSH2 0x1DB JUMP JUMPDEST DUP5 ADD SWAP2 POP POP SWAP3 SWAP2 POP POP JUMP JUMPDEST PUSH0 PUSH1 0x20 DUP3 ADD SWAP1 POP DUP2 DUP2 SUB PUSH0 DUP4 ADD MSTORE PUSH2 0x23B DUP2 DUP5 PUSH2 0x1EB JUMP JUMPDEST SWAP1 POP SWAP3 SWAP2 POP POP JUMP JUMPDEST PUSH0 PUSH20 0xFFFFFFFFFFFFFFFFFFFFFFFFFFFFFFFFFFFFFFFF DUP3 AND SWAP1 POP SWAP2 SWAP1 POP JUMP JUMPDEST PUSH0 PUSH2 0x26C DUP3 PUSH2 0x243 JUMP JUMPDEST SWAP1 POP SWAP2 SWAP1 POP JUMP JUMPDEST PUSH2 0x27C DUP2 PUSH2 0x262 JUMP JUMPDEST DUP3 MSTORE POP POP JUMP JUMPDEST PUSH0 PUSH1 0x20 DUP3 ADD SWAP1 POP PUSH2 0x295 PUSH0 DUP4 ADD DUP5 PUSH2 0x273 JUMP JUMPDEST SWAP3 SWAP2 POP POP JUMP JUMPDEST PUSH0 DUP2 SWAP1 POP SWAP2 SWAP1 POP JUMP JUMPDEST PUSH2 0x2AD DUP2 PUSH2 0x29B JUMP JUMPDEST DUP3 MSTORE POP POP JUMP JUMPDEST PUSH0 PUSH1 0x20 DUP3 ADD SWAP1 POP PUSH2 0x2C6 PUSH0 DUP4 ADD DUP5 PUSH2 0x2A4 JUMP JUMPDEST SWAP3 SWAP2 POP POP JUMP JUMPDEST PUSH0 PUSH0 REVERT JUMPDEST PUSH2 0x2D9 DUP2 PUSH2 0x29B JUMP JUMPDEST DUP2 EQ PUSH2 0x2E3 JUMPI PUSH0 PUSH0 REVERT JUMPDEST POP JUMP JUMPDEST PUSH0 DUP2 CALLDATALOAD SWAP1 POP PUSH2 0x2F4 DUP2 PUSH2 0x2D0 JUMP JUMPDEST SWAP3 SWAP2 POP POP JUMP JUMPDEST PUSH0 PUSH1 0x20 DUP3 DUP5 SUB SLT ISZERO PUSH2 0x30F JUMPI PUSH2 0x30E PUSH2 0x2CC JUMP JUMPDEST JUMPDEST PUSH0 PUSH2 0x31C DUP5 DUP3 DUP6 ADD PUSH2 0x2E6 JUMP JUMPDEST SWAP2 POP POP SWAP3 SWAP2 POP POP JUMP JUMPDEST PUSH32 0x4E487B7100000000000000000000000000000000000000000000000000000000 PUSH0 MSTORE PUSH1 0x22 PUSH1 0x4 MSTORE PUSH1 0x24 PUSH0 REVERT JUMPDEST PUSH0 PUSH1 0x2 DUP3 DIV SWAP1 POP PUSH1 0x1 DUP3 AND DUP1 PUSH2 0x369 JUMPI PUSH1 0x7F DUP3 AND SWAP2 POP JUMPDEST PUSH1 0x20 DUP3 LT DUP2 SUB PUSH2 0x37C JUMPI PUSH2 0x37B PUSH2 0x325 JUMP JUMPDEST JUMPDEST POP SWAP2 SWAP1 POP JUMP INVALID LOG2 PUSH5 0x6970667358 0x22 SLT KECCAK256 SUB DUP14 SWAP10 GASLIMIT 0x27 PUSH4 0xBF6C4102 0xA9 0xE1 CHAINID 0xDC DUP12 0xE7 PC DUP10 CALLDATALOAD 0xBE SELFDESTRUCT CALLDATACOPY MCOPY 0x2B 0xF DUP12 SUB 0x4F 0xB2 0xCE DUP5 ISZERO PUSH5 0x736F6C6343 STOP ADDMOD SHR STOP CALLER "
				},
				"gasEstimates": {
					"creation": {
						"codeDepositCost": "190400",
						"executionCost": "infinite",
						"totalCost": "infinite"
					},
					"external": {
						"getPrice()": "2453",
						"location()": "infinite",
						"owner()": "infinite",
						"price()": "2468",
						"setPrice(int256)": "22580"
					}
				},
				"methodIdentifiers": {
					"getPrice()": "98d5fdca",
					"location()": "516f279e",
					"owner()": "8da5cb5b",
					"price()": "a035b1fe",
					"setPrice(int256)": "f7a30806"
				}
			},
			"storageLayout": {
				"storage": [
					{
						"astId": 3,
						"contract": "src/contractTwo.sol:Property",
						"label": "price",
						"offset": 0,
						"slot": "0",
						"type": "t_int256"
					},
					{
						"astId": 5,
						"contract": "src/contractTwo.sol:Property",
						"label": "location",
						"offset": 0,
						"slot": "1",
						"type": "t_string_storage"
					}
				],
				"types": {
					"t_int256": {
						"encoding": "inplace",
						"label": "int256",
						"numberOfBytes": "32"
					},
					"t_string_storage": {
						"encoding": "bytes",
						"label": "string",
						"numberOfBytes": "32"
					}
				}
			},
			"userdoc": {
				"kind": "user",
				"methods": {},
				"version": 1
			}
		}
	}
}