{
	"src/contract_3.sol": {
		"Property": {
			"abi": [
				{
					"inputs": [],
					"name": "f1",
					"outputs": [],
					"stateMutability": "nonpayable",
					"type": "function"
				},
				{
					"inputs": [],
					"name": "num",
					"outputs": [
						{
							"internalType": "int256",
							"name": "",
							"type": "int256"
						}
					],
					"stateMutability": "view",
					"type": "function"
				},
				{
					"inputs": [],
					"name": "sold",
					"outputs": [
						{
							"internalType": "bool",
							"name": "",
							"type": "bool"
						}
					],
					"stateMutability": "view",
					"type": "function"
				},
				{
					"inputs": [],
					"name": "x",
					"outputs": [
						{
							"internalType": "uint8",
							"name": "",
							"type": "uint8"
						}
					],
					"stateMutability": "view",
					"type": "function"
				},
				{
					"inputs": [],
					"name": "y",
					"outputs": [
						{
							"internalType": "int8",
							"name": "",
							"type": "int8"
						}
					],
					"stateMutability": "view",
					"type": "function"
				}
			],
			"devdoc": {
				"kind": "dev",
				"methods": {},
				"version": 1
			},
			"evm": {
				"assembly": "    /* \"src/contract_3.sol\":57:273  contract Property{... */\n  mstore(0x40, 0x80)\n    /* \"src/contract_3.sol\":167:170  255 */\n  0xff\n    /* \"src/contract_3.sol\":150:170  uint8 public x = 255 */\n  0x00\n  exp(0x0100, 0x01)\n  dup2\n  sload\n  dup2\n  0xff\n  mul\n  not\n  and\n  swap1\n  dup4\n  0xff\n  and\n  mul\n  or\n  swap1\n  sstore\n  pop\n    /* \"src/contract_3.sol\":218:221  -10 */\n  0xfffffffffffffffffffffffffffffffffffffffffffffffffffffffffffffff6\n    /* \"src/contract_3.sol\":202:221  int8 public y = -10 */\n  0x02\n  exp(0x0100, 0x00)\n  dup2\n  sload\n  dup2\n  0xff\n  mul\n  not\n  and\n  swap1\n  dup4\n  0x00\n  signextend\n  0xff\n  and\n  mul\n  or\n  swap1\n  sstore\n  pop\n    /* \"src/contract_3.sol\":57:273  contract Property{... */\n  callvalue\n  dup1\n  iszero\n  tag_1\n  jumpi\n  revert(0x00, 0x00)\ntag_1:\n  pop\n  dataSize(sub_0)\n  dup1\n  dataOffset(sub_0)\n  0x00\n  codecopy\n  0x00\n  return\nstop\n\nsub_0: assembly {\n        /* \"src/contract_3.sol\":57:273  contract Property{... */\n      mstore(0x40, 0x80)\n      callvalue\n      dup1\n      iszero\n      tag_1\n      jumpi\n      revert(0x00, 0x00)\n    tag_1:\n      pop\n      jumpi(tag_2, lt(calldatasize, 0x04))\n      shr(0xe0, calldataload(0x00))\n      dup1\n      0x02c7e7af\n      eq\n      tag_3\n      jumpi\n      dup1\n      0x0c55699c\n      eq\n      tag_4\n      jumpi\n      dup1\n      0x4e70b1dc\n      eq\n      tag_5\n      jumpi\n      dup1\n      0xa56dfe4a\n      eq\n      tag_6\n      jumpi\n      dup1\n      0xc27fc305\n      eq\n      tag_7\n      jumpi\n    tag_2:\n      revert(0x00, 0x00)\n        /* \"src/contract_3.sol\":104:120  bool public sold */\n    tag_3:\n      tag_8\n      tag_9\n      jump\t// in\n    tag_8:\n      mload(0x40)\n      tag_10\n      swap2\n      swap1\n      tag_11\n      jump\t// in\n    tag_10:\n      mload(0x40)\n      dup1\n      swap2\n      sub\n      swap1\n      return\n        /* \"src/contract_3.sol\":150:170  uint8 public x = 255 */\n    tag_4:\n      tag_12\n      tag_13\n      jump\t// in\n    tag_12:\n      mload(0x40)\n      tag_14\n      swap2\n      swap1\n      tag_15\n      jump\t// in\n    tag_14:\n      mload(0x40)\n      dup1\n      swap2\n      sub\n      swap1\n      return\n        /* \"src/contract_3.sol\":181:195  int public num */\n    tag_5:\n      tag_16\n      tag_17\n      jump\t// in\n    tag_16:\n      mload(0x40)\n      tag_18\n      swap2\n      swap1\n      tag_19\n      jump\t// in\n    tag_18:\n      mload(0x40)\n      dup1\n      swap2\n      sub\n      swap1\n      return\n        /* \"src/contract_3.sol\":202:221  int8 public y = -10 */\n    tag_6:\n      tag_20\n      tag_21\n      jump\t// in\n    tag_20:\n      mload(0x40)\n      tag_22\n      swap2\n      swap1\n      tag_23\n      jump\t// in\n    tag_22:\n      mload(0x40)\n      dup1\n      swap2\n      sub\n      swap1\n      return\n        /* \"src/contract_3.sol\":228:271  function f1() public{... */\n    tag_7:\n      tag_24\n      tag_25\n      jump\t// in\n    tag_24:\n      stop\n        /* \"src/contract_3.sol\":104:120  bool public sold */\n    tag_9:\n      0x00\n      0x00\n      swap1\n      sload\n      swap1\n      0x0100\n      exp\n      swap1\n      div\n      0xff\n      and\n      dup2\n      jump\t// out\n        /* \"src/contract_3.sol\":150:170  uint8 public x = 255 */\n    tag_13:\n      0x00\n      0x01\n      swap1\n      sload\n      swap1\n      0x0100\n      exp\n      swap1\n      div\n      0xff\n      and\n      dup2\n      jump\t// out\n        /* \"src/contract_3.sol\":181:195  int public num */\n    tag_17:\n      sload(0x01)\n      dup2\n      jump\t// out\n        /* \"src/contract_3.sol\":202:221  int8 public y = -10 */\n    tag_21:\n      0x02\n      0x00\n      swap1\n      sload\n      swap1\n      0x0100\n      exp\n      swap1\n      div\n      0x00\n      signextend\n      dup2\n      jump\t// out\n        /* \"src/contract_3.sol\":228:271  function f1() public{... */\n    tag_25:\n        /* \"src/contract_3.sol\":263:264  1 */\n      0x01\n        /* \"src/contract_3.sol\":258:259  x */\n      0x00\n      0x01\n        /* \"src/contract_3.sol\":258:264  x += 1 */\n      dup3\n      dup3\n      dup3\n      swap1\n      sload\n      swap1\n      0x0100\n      exp\n      swap1\n      div\n      0xff\n      and\n      tag_27\n      swap2\n      swap1\n      tag_28\n      jump\t// in\n    tag_27:\n      swap3\n      pop\n      0x0100\n      exp\n      dup2\n      sload\n      dup2\n      0xff\n      mul\n      not\n      and\n      swap1\n      dup4\n      0xff\n      and\n      mul\n      or\n      swap1\n      sstore\n      pop\n        /* \"src/contract_3.sol\":228:271  function f1() public{... */\n      jump\t// out\n        /* \"#utility.yul\":7:97   */\n    tag_29:\n        /* \"#utility.yul\":41:48   */\n      0x00\n        /* \"#utility.yul\":84:89   */\n      dup2\n        /* \"#utility.yul\":77:90   */\n      iszero\n        /* \"#utility.yul\":70:91   */\n      iszero\n        /* \"#utility.yul\":59:91   */\n      swap1\n      pop\n        /* \"#utility.yul\":7:97   */\n      swap2\n      swap1\n      pop\n      jump\t// out\n        /* \"#utility.yul\":103:212   */\n    tag_30:\n        /* \"#utility.yul\":184:205   */\n      tag_41\n        /* \"#utility.yul\":199:204   */\n      dup2\n        /* \"#utility.yul\":184:205   */\n      tag_29\n      jump\t// in\n    tag_41:\n        /* \"#utility.yul\":179:182   */\n      dup3\n        /* \"#utility.yul\":172:206   */\n      mstore\n        /* \"#utility.yul\":103:212   */\n      pop\n      pop\n      jump\t// out\n        /* \"#utility.yul\":218:428   */\n    tag_11:\n        /* \"#utility.yul\":305:309   */\n      0x00\n        /* \"#utility.yul\":343:345   */\n      0x20\n        /* \"#utility.yul\":332:341   */\n      dup3\n        /* \"#utility.yul\":328:346   */\n      add\n        /* \"#utility.yul\":320:346   */\n      swap1\n      pop\n        /* \"#utility.yul\":356:421   */\n      tag_43\n        /* \"#utility.yul\":418:419   */\n      0x00\n        /* \"#utility.yul\":407:416   */\n      dup4\n        /* \"#utility.yul\":403:420   */\n      add\n        /* \"#utility.yul\":394:400   */\n      dup5\n        /* \"#utility.yul\":356:421   */\n      tag_30\n      jump\t// in\n    tag_43:\n        /* \"#utility.yul\":218:428   */\n      swap3\n      swap2\n      pop\n      pop\n      jump\t// out\n        /* \"#utility.yul\":434:520   */\n    tag_31:\n        /* \"#utility.yul\":469:476   */\n      0x00\n        /* \"#utility.yul\":509:513   */\n      0xff\n        /* \"#utility.yul\":502:507   */\n      dup3\n        /* \"#utility.yul\":498:514   */\n      and\n        /* \"#utility.yul\":487:514   */\n      swap1\n      pop\n        /* \"#utility.yul\":434:520   */\n      swap2\n      swap1\n      pop\n      jump\t// out\n        /* \"#utility.yul\":526:638   */\n    tag_32:\n        /* \"#utility.yul\":609:631   */\n      tag_46\n        /* \"#utility.yul\":625:630   */\n      dup2\n        /* \"#utility.yul\":609:631   */\n      tag_31\n      jump\t// in\n    tag_46:\n        /* \"#utility.yul\":604:607   */\n      dup3\n        /* \"#utility.yul\":597:632   */\n      mstore\n        /* \"#utility.yul\":526:638   */\n      pop\n      pop\n      jump\t// out\n        /* \"#utility.yul\":644:858   */\n    tag_15:\n        /* \"#utility.yul\":733:737   */\n      0x00\n        /* \"#utility.yul\":771:773   */\n      0x20\n        /* \"#utility.yul\":760:769   */\n      dup3\n        /* \"#utility.yul\":756:774   */\n      add\n        /* \"#utility.yul\":748:774   */\n      swap1\n      pop\n        /* \"#utility.yul\":784:851   */\n      tag_48\n        /* \"#utility.yul\":848:849   */\n      0x00\n        /* \"#utility.yul\":837:846   */\n      dup4\n        /* \"#utility.yul\":833:850   */\n      add\n        /* \"#utility.yul\":824:830   */\n      dup5\n        /* \"#utility.yul\":784:851   */\n      tag_32\n      jump\t// in\n    tag_48:\n        /* \"#utility.yul\":644:858   */\n      swap3\n      swap2\n      pop\n      pop\n      jump\t// out\n        /* \"#utility.yul\":864:940   */\n    tag_33:\n        /* \"#utility.yul\":900:907   */\n      0x00\n        /* \"#utility.yul\":929:934   */\n      dup2\n        /* \"#utility.yul\":918:934   */\n      swap1\n      pop\n        /* \"#utility.yul\":864:940   */\n      swap2\n      swap1\n      pop\n      jump\t// out\n        /* \"#utility.yul\":946:1061   */\n    tag_34:\n        /* \"#utility.yul\":1031:1054   */\n      tag_51\n        /* \"#utility.yul\":1048:1053   */\n      dup2\n        /* \"#utility.yul\":1031:1054   */\n      tag_33\n      jump\t// in\n    tag_51:\n        /* \"#utility.yul\":1026:1029   */\n      dup3\n        /* \"#utility.yul\":1019:1055   */\n      mstore\n        /* \"#utility.yul\":946:1061   */\n      pop\n      pop\n      jump\t// out\n        /* \"#utility.yul\":1067:1285   */\n    tag_19:\n        /* \"#utility.yul\":1158:1162   */\n      0x00\n        /* \"#utility.yul\":1196:1198   */\n      0x20\n        /* \"#utility.yul\":1185:1194   */\n      dup3\n        /* \"#utility.yul\":1181:1199   */\n      add\n        /* \"#utility.yul\":1173:1199   */\n      swap1\n      pop\n        /* \"#utility.yul\":1209:1278   */\n      tag_53\n        /* \"#utility.yul\":1275:1276   */\n      0x00\n        /* \"#utility.yul\":1264:1273   */\n      dup4\n        /* \"#utility.yul\":1260:1277   */\n      add\n        /* \"#utility.yul\":1251:1257   */\n      dup5\n        /* \"#utility.yul\":1209:1278   */\n      tag_34\n      jump\t// in\n    tag_53:\n        /* \"#utility.yul\":1067:1285   */\n      swap3\n      swap2\n      pop\n      pop\n      jump\t// out\n        /* \"#utility.yul\":1291:1380   */\n    tag_35:\n        /* \"#utility.yul\":1325:1332   */\n      0x00\n        /* \"#utility.yul\":1368:1373   */\n      dup2\n        /* \"#utility.yul\":1365:1366   */\n      0x00\n        /* \"#utility.yul\":1354:1374   */\n      signextend\n        /* \"#utility.yul\":1343:1374   */\n      swap1\n      pop\n        /* \"#utility.yul\":1291:1380   */\n      swap2\n      swap1\n      pop\n      jump\t// out\n        /* \"#utility.yul\":1386:1495   */\n    tag_36:\n        /* \"#utility.yul\":1467:1488   */\n      tag_56\n        /* \"#utility.yul\":1482:1487   */\n      dup2\n        /* \"#utility.yul\":1467:1488   */\n      tag_35\n      jump\t// in\n    tag_56:\n        /* \"#utility.yul\":1462:1465   */\n      dup3\n        /* \"#utility.yul\":1455:1489   */\n      mstore\n        /* \"#utility.yul\":1386:1495   */\n      pop\n      pop\n      jump\t// out\n        /* \"#utility.yul\":1501:1711   */\n    tag_23:\n        /* \"#utility.yul\":1588:1592   */\n      0x00\n        /* \"#utility.yul\":1626:1628   */\n      0x20\n        /* \"#utility.yul\":1615:1624   */\n      dup3\n        /* \"#utility.yul\":1611:1629   */\n      add\n        /* \"#utility.yul\":1603:1629   */\n      swap1\n      pop\n        /* \"#utility.yul\":1639:1704   */\n      tag_58\n        /* \"#utility.yul\":1701:1702   */\n      0x00\n        /* \"#utility.yul\":1690:1699   */\n      dup4\n        /* \"#utility.yul\":1686:1703   */\n      add\n        /* \"#utility.yul\":1677:1683   */\n      dup5\n        /* \"#utility.yul\":1639:1704   */\n      tag_36\n      jump\t// in\n    tag_58:\n        /* \"#utility.yul\":1501:1711   */\n      swap3\n      swap2\n      pop\n      pop\n      jump\t// out\n        /* \"#utility.yul\":1717:1897   */\n    tag_37:\n        /* \"#utility.yul\":1765:1842   */\n      0x4e487b7100000000000000000000000000000000000000000000000000000000\n        /* \"#utility.yul\":1762:1763   */\n      0x00\n        /* \"#utility.yul\":1755:1843   */\n      mstore\n        /* \"#utility.yul\":1862:1866   */\n      0x11\n        /* \"#utility.yul\":1859:1860   */\n      0x04\n        /* \"#utility.yul\":1852:1867   */\n      mstore\n        /* \"#utility.yul\":1886:1890   */\n      0x24\n        /* \"#utility.yul\":1883:1884   */\n      0x00\n        /* \"#utility.yul\":1876:1891   */\n      revert\n        /* \"#utility.yul\":1903:2091   */\n    tag_28:\n        /* \"#utility.yul\":1941:1944   */\n      0x00\n        /* \"#utility.yul\":1960:1978   */\n      tag_61\n        /* \"#utility.yul\":1976:1977   */\n      dup3\n        /* \"#utility.yul\":1960:1978   */\n      tag_31\n      jump\t// in\n    tag_61:\n        /* \"#utility.yul\":1955:1978   */\n      swap2\n      pop\n        /* \"#utility.yul\":1992:2010   */\n      tag_62\n        /* \"#utility.yul\":2008:2009   */\n      dup4\n        /* \"#utility.yul\":1992:2010   */\n      tag_31\n      jump\t// in\n    tag_62:\n        /* \"#utility.yul\":1987:2010   */\n      swap3\n      pop\n        /* \"#utility.yul\":2033:2034   */\n      dup3\n        /* \"#utility.yul\":2030:2031   */\n      dup3\n        /* \"#utility.yul\":2026:2035   */\n      add\n        /* \"#utility.yul\":2019:2035   */\n      swap1\n      pop\n        /* \"#utility.yul\":2056:2060   */\n      0xff\n        /* \"#utility.yul\":2051:2054   */\n      dup2\n        /* \"#utility.yul\":2048:2061   */\n      gt\n        /* \"#utility.yul\":2045:2084   */\n      iszero\n      tag_63\n      jumpi\n        /* \"#utility.yul\":2064:2082   */\n      tag_64\n      tag_37\n      jump\t// in\n    tag_64:\n        /* \"#utility.yul\":2045:2084   */\n    tag_63:\n        /* \"#utility.yul\":1903:2091   */\n      swap3\n      swap2\n      pop\n      pop\n      jump\t// out\n\n    auxdata: 0xa2646970667358221220cad74560b8ea8d7135448b2d24767fbb52a75bba5496b551d4d6ea29bcc96cd264736f6c634300081c0033\n}\n",
				"bytecode": {
					"linkReferences": {},
					"object": "608060405260ff5f60016101000a81548160ff021916908360ff1602179055507ffffffffffffffffffffffffffffffffffffffffffffffffffffffffffffffff660025f6101000a81548160ff02191690835f0b60ff1602179055503480156065575f5ffd5b506102af806100735f395ff3fe608060405234801561000f575f5ffd5b5060043610610055575f3560e01c806302c7e7af146100595780630c55699c146100775780634e70b1dc14610095578063a56dfe4a146100b3578063c27fc305146100d1575b5f5ffd5b6100616100db565b60405161006e9190610167565b60405180910390f35b61007f6100ec565b60405161008c919061019b565b60405180910390f35b61009d6100fe565b6040516100aa91906101cc565b60405180910390f35b6100bb610104565b6040516100c891906101ff565b60405180910390f35b6100d9610115565b005b5f5f9054906101000a900460ff1681565b5f60019054906101000a900460ff1681565b60015481565b60025f9054906101000a90045f0b81565b60015f60018282829054906101000a900460ff166101339190610245565b92506101000a81548160ff021916908360ff160217905550565b5f8115159050919050565b6101618161014d565b82525050565b5f60208201905061017a5f830184610158565b92915050565b5f60ff82169050919050565b61019581610180565b82525050565b5f6020820190506101ae5f83018461018c565b92915050565b5f819050919050565b6101c6816101b4565b82525050565b5f6020820190506101df5f8301846101bd565b92915050565b5f815f0b9050919050565b6101f9816101e5565b82525050565b5f6020820190506102125f8301846101f0565b92915050565b7f4e487b71000000000000000000000000000000000000000000000000000000005f52601160045260245ffd5b5f61024f82610180565b915061025a83610180565b9250828201905060ff81111561027357610272610218565b5b9291505056fea2646970667358221220cad74560b8ea8d7135448b2d24767fbb52a75bba5496b551d4d6ea29bcc96cd264736f6c634300081c0033",
					"opcodes": "PUSH1 0x80 PUSH1 0x40 MSTORE PUSH1 0xFF PUSH0 PUSH1 0x1 PUSH2 0x100 EXP DUP2 SLOAD DUP2 PUSH1 0xFF MUL NOT AND SWAP1 DUP4 PUSH1 0xFF AND MUL OR SWAP1 SSTORE POP PUSH32 0xFFFFFFFFFFFFFFFFFFFFFFFFFFFFFFFFFFFFFFFFFFFFFFFFFFFFFFFFFFFFFFF6 PUSH1 0x2 PUSH0 PUSH2 0x100 EXP DUP2 SLOAD DUP2 PUSH1 0xFF MUL NOT AND SWAP1 DUP4 PUSH0 SIGNEXTEND PUSH1 0xFF AND MUL OR SWAP1 SSTORE POP CALLVALUE DUP1 ISZERO PUSH1 0x65 JUMPI PUSH0 PUSH0 REVERT JUMPDEST POP PUSH2 0x2AF DUP1 PUSH2 0x73 PUSH0 CODECOPY PUSH0 RETURN INVALID PUSH1 0x80 PUSH1 0x40 MSTORE CALLVALUE DUP1 ISZERO PUSH2 0xF JUMPI PUSH0 PUSH0 REVERT JUMPDEST POP PUSH1 0x4 CALLDATASIZE LT PUSH2 0x55 JUMPI PUSH0 CALLDATALOAD PUSH1 0xE0 SHR DUP1 PUSH4 0x2C7E7AF EQ PUSH2 0x59 JUMPI DUP1 PUSH4 0xC55699C EQ PUSH2 0x77 JUMPI DUP1 PUSH4 0x4E70B1DC EQ PUSH2 0x95 JUMPI DUP1 PUSH4 0xA56DFE4A EQ PUSH2 0xB3 JUMPI DUP1 PUSH4 0xC27FC305 EQ PUSH2 0xD1 JUMPI JUMPDEST PUSH0 PUSH0 REVERT JUMPDEST PUSH2 0x61 PUSH2 0xDB JUMP JUMPDEST PUSH1 0x40 MLOAD PUSH2 0x6E SWAP2 SWAP1 PUSH2 0x167 JUMP JUMPDEST PUSH1 0x40 MLOAD DUP1 SWAP2 SUB SWAP1 RETURN JUMPDEST PUSH2 0x7F PUSH2 0xEC JUMP JUMPDEST PUSH1 0x40 MLOAD PUSH2 0x8C SWAP2 SWAP1 PUSH2 0x19B JUMP JUMPDEST PUSH1 0x40 MLOAD DUP1 SWAP2 SUB SWAP1 RETURN JUMPDEST PUSH2 0x9D PUSH2 0xFE JUMP JUMPDEST PUSH1 0x40 MLOAD PUSH2 0xAA SWAP2 SWAP1 PUSH2 0x1CC JUMP JUMPDEST PUSH1 0x40 MLOAD DUP1 SWAP2 SUB SWAP1 RETURN JUMPDEST PUSH2 0xBB PUSH2 0x104 JUMP JUMPDEST PUSH1 0x40 MLOAD PUSH2 0xC8 SWAP2 SWAP1 PUSH2 0x1FF JUMP JUMPDEST PUSH1 0x40 MLOAD DUP1 SWAP2 SUB SWAP1 RETURN JUMPDEST PUSH2 0xD9 PUSH2 0x115 JUMP JUMPDEST STOP JUMPDEST PUSH0 PUSH0 SWAP1 SLOAD SWAP1 PUSH2 0x100 EXP SWAP1 DIV PUSH1 0xFF AND DUP2 JUMP JUMPDEST PUSH0 PUSH1 0x1 SWAP1 SLOAD SWAP1 PUSH2 0x100 EXP SWAP1 DIV PUSH1 0xFF AND DUP2 JUMP JUMPDEST PUSH1 0x1 SLOAD DUP2 JUMP JUMPDEST PUSH1 0x2 PUSH0 SWAP1 SLOAD SWAP1 PUSH2 0x100 EXP SWAP1 DIV PUSH0 SIGNEXTEND DUP2 JUMP JUMPDEST PUSH1 0x1 PUSH0 PUSH1 0x1 DUP3 DUP3 DUP3 SWAP1 SLOAD SWAP1 PUSH2 0x100 EXP SWAP1 DIV PUSH1 0xFF AND PUSH2 0x133 SWAP2 SWAP1 PUSH2 0x245 JUMP JUMPDEST SWAP3 POP PUSH2 0x100 EXP DUP2 SLOAD DUP2 PUSH1 0xFF MUL NOT AND SWAP1 DUP4 PUSH1 0xFF AND MUL OR SWAP1 SSTORE POP JUMP JUMPDEST PUSH0 DUP2 ISZERO ISZERO SWAP1 POP SWAP2 SWAP1 POP JUMP JUMPDEST PUSH2 0x161 DUP2 PUSH2 0x14D JUMP JUMPDEST DUP3 MSTORE POP POP JUMP JUMPDEST PUSH0 PUSH1 0x20 DUP3 ADD SWAP1 POP PUSH2 0x17A PUSH0 DUP4 ADD DUP5 PUSH2 0x158 JUMP JUMPDEST SWAP3 SWAP2 POP POP JUMP JUMPDEST PUSH0 PUSH1 0xFF DUP3 AND SWAP1 POP SWAP2 SWAP1 POP JUMP JUMPDEST PUSH2 0x195 DUP2 PUSH2 0x180 JUMP JUMPDEST DUP3 MSTORE POP POP JUMP JUMPDEST PUSH0 PUSH1 0x20 DUP3 ADD SWAP1 POP PUSH2 0x1AE PUSH0 DUP4 ADD DUP5 PUSH2 0x18C JUMP JUMPDEST SWAP3 SWAP2 POP POP JUMP JUMPDEST PUSH0 DUP2 SWAP1 POP SWAP2 SWAP1 POP JUMP JUMPDEST PUSH2 0x1C6 DUP2 PUSH2 0x1B4 JUMP JUMPDEST DUP3 MSTORE POP POP JUMP JUMPDEST PUSH0 PUSH1 0x20 DUP3 ADD SWAP1 POP PUSH2 0x1DF PUSH0 DUP4 ADD DUP5 PUSH2 0x1BD JUMP JUMPDEST SWAP3 SWAP2 POP POP JUMP JUMPDEST PUSH0 DUP2 PUSH0 SIGNEXTEND SWAP1 POP SWAP2 SWAP1 POP JUMP JUMPDEST PUSH2 0x1F9 DUP2 PUSH2 0x1E5 JUMP JUMPDEST DUP3 MSTORE POP POP JUMP JUMPDEST PUSH0 PUSH1 0x20 DUP3 ADD SWAP1 POP PUSH2 0x212 PUSH0 DUP4 ADD DUP5 PUSH2 0x1F0 JUMP JUMPDEST SWAP3 SWAP2 POP POP JUMP JUMPDEST PUSH32 0x4E487B7100000000000000000000000000000000000000000000000000000000 PUSH0 MSTORE PUSH1 0x11 PUSH1 0x4 MSTORE PUSH1 0x24 PUSH0 REVERT JUMPDEST PUSH0 PUSH2 0x24F DUP3 PUSH2 0x180 JUMP JUMPDEST SWAP2 POP PUSH2 0x25A DUP4 PUSH2 0x180 JUMP JUMPDEST SWAP3 POP DUP3 DUP3 ADD SWAP1 POP PUSH1 0xFF DUP2 GT ISZERO PUSH2 0x273 JUMPI PUSH2 0x272 PUSH2 0x218 JUMP JUMPDEST JUMPDEST SWAP3 SWAP2 POP POP JUMP INVALID LOG2 PUSH5 0x6970667358 0x22 SLT KECCAK256 0xCA 0xD7 GASLIMIT PUSH1 0xB8 0xEA DUP14 PUSH18 0x35448B2D24767FBB52A75BBA5496B551D4D6 0xEA 0x29 0xBC 0xC9 PUSH13 0xD264736F6C634300081C003300 "
				},
				"gasEstimates": {
					"creation": {
						"codeDepositCost": "137400",
						"executionCost": "48770",
						"totalCost": "186170"
					},
					"external": {
						"f1()": "infinite",
						"num()": "2447",
						"sold()": "2443",
						"x()": "2516",
						"y()": "2512"
					}
				},
				"methodIdentifiers": {
					"f1()": "c27fc305",
					"num()": "4e70b1dc",
					"sold()": "02c7e7af",
					"x()": "0c55699c",
					"y()": "a56dfe4a"
				}
			},
			"storageLayout": {
				"storage": [
					{
						"astId": 3,
						"contract": "src/contract_3.sol:Property",
						"label": "sold",
						"offset": 0,
						"slot": "0",
						"type": "t_bool"
					},
					{
						"astId": 6,
						"contract": "src/contract_3.sol:Property",
						"label": "x",
						"offset": 1,
						"slot": "0",
						"type": "t_uint8"
					},
					{
						"astId": 8,
						"contract": "src/contract_3.sol:Property",
						"label": "num",
						"offset": 0,
						"slot": "1",
						"type": "t_int256"
					},
					{
						"astId": 12,
						"contract": "src/contract_3.sol:Property",
						"label": "y",
						"offset": 0,
						"slot": "2",
						"type": "t_int8"
					}
				],
				"types": {
					"t_bool": {
						"encoding": "inplace",
						"label": "bool",
						"numberOfBytes": "1"
					},
					"t_int256": {
						"encoding": "inplace",
						"label": "int256",
						"numberOfBytes": "32"
					},
					"t_int8": {
						"encoding": "inplace",
						"label": "int8",
						"numberOfBytes": "1"
					},
					"t_uint8": {
						"encoding": "inplace",
						"label": "uint8",
						"numberOfBytes": "1"
					}
				}
			},
			"userdoc": {
				"kind": "user",
				"methods": {},
				"version": 1
			}
		}
	}
}