{
	"data": {
		"bytecode": {
			"linkReferences": {},
			"object": "6080604052600a6001553480156013575f5ffd5b5061019d806100215f395ff3fe608060405234801561000f575f5ffd5b506004361061004a575f3560e01c80633fa4f2451461004e5780635093dc7d1461006c578063618ea1c414610088578063e64959d4146100a6575b5f5ffd5b6100566100c4565b60405161006391906100f5565b60405180910390f35b6100866004803603810190610081919061013c565b6100c9565b005b6100906100d2565b60405161009d91906100f5565b60405180910390f35b6100ae6100d7565b6040516100bb91906100f5565b60405180910390f35b5f5481565b805f8190555050565b600a81565b60015481565b5f819050919050565b6100ef816100dd565b82525050565b5f6020820190506101085f8301846100e6565b92915050565b5f5ffd5b61011b816100dd565b8114610125575f5ffd5b50565b5f8135905061013681610112565b92915050565b5f602082840312156101515761015061010e565b5b5f61015e84828501610128565b9150509291505056fea264697066735822122004b5af81506ac1893f59ffef2873c61b54617e5edbf8b2a50fd16810f48d4f7264736f6c634300081c0033",
			"opcodes": "PUSH1 0x80 PUSH1 0x40 MSTORE PUSH1 0xA PUSH1 0x1 SSTORE CALLVALUE DUP1 ISZERO PUSH1 0x13 JUMPI PUSH0 PUSH0 REVERT JUMPDEST POP PUSH2 0x19D DUP1 PUSH2 0x21 PUSH0 CODECOPY PUSH0 RETURN INVALID PUSH1 0x80 PUSH1 0x40 MSTORE CALLVALUE DUP1 ISZERO PUSH2 0xF JUMPI PUSH0 PUSH0 REVERT JUMPDEST POP PUSH1 0x4 CALLDATASIZE LT PUSH2 0x4A JUMPI PUSH0 CALLDATALOAD PUSH1 0xE0 SHR DUP1 PUSH4 0x3FA4F245 EQ PUSH2 0x4E JUMPI DUP1 PUSH4 0x5093DC7D EQ PUSH2 0x6C JUMPI DUP1 PUSH4 0x618EA1C4 EQ PUSH2 0x88 JUMPI DUP1 PUSH4 0xE64959D4 EQ PUSH2 0xA6 JUMPI JUMPDEST PUSH0 PUSH0 REVERT JUMPDEST PUSH2 0x56 PUSH2 0xC4 JUMP JUMPDEST PUSH1 0x40 MLOAD PUSH2 0x63 SWAP2 SWAP1 PUSH2 0xF5 JUMP JUMPDEST PUSH1 0x40 MLOAD DUP1 SWAP2 SUB SWAP1 RETURN JUMPDEST PUSH2 0x86 PUSH1 0x4 DUP1 CALLDATASIZE SUB DUP2 ADD SWAP1 PUSH2 0x81 SWAP2 SWAP1 PUSH2 0x13C JUMP JUMPDEST PUSH2 0xC9 JUMP JUMPDEST STOP JUMPDEST PUSH2 0x90 PUSH2 0xD2 JUMP JUMPDEST PUSH1 0x40 MLOAD PUSH2 0x9D SWAP2 SWAP1 PUSH2 0xF5 JUMP JUMPDEST PUSH1 0x40 MLOAD DUP1 SWAP2 SUB SWAP1 RETURN JUMPDEST PUSH2 0xAE PUSH2 0xD7 JUMP JUMPDEST PUSH1 0x40 MLOAD PUSH2 0xBB SWAP2 SWAP1 PUSH2 0xF5 JUMP JUMPDEST PUSH1 0x40 MLOAD DUP1 SWAP2 SUB SWAP1 RETURN JUMPDEST PUSH0 SLOAD DUP2 JUMP JUMPDEST DUP1 PUSH0 DUP2 SWAP1 SSTORE POP POP JUMP JUMPDEST PUSH1 0xA DUP2 JUMP JUMPDEST PUSH1 0x1 SLOAD DUP2 JUMP JUMPDEST PUSH0 DUP2 SWAP1 POP SWAP2 SWAP1 POP JUMP JUMPDEST PUSH2 0xEF DUP2 PUSH2 0xDD JUMP JUMPDEST DUP3 MSTORE POP POP JUMP JUMPDEST PUSH0 PUSH1 0x20 DUP3 ADD SWAP1 POP PUSH2 0x108 PUSH0 DUP4 ADD DUP5 PUSH2 0xE6 JUMP JUMPDEST SWAP3 SWAP2 POP POP JUMP JUMPDEST PUSH0 PUSH0 REVERT JUMPDEST PUSH2 0x11B DUP2 PUSH2 0xDD JUMP JUMPDEST DUP2 EQ PUSH2 0x125 JUMPI PUSH0 PUSH0 REVERT JUMPDEST POP JUMP JUMPDEST PUSH0 DUP2 CALLDATALOAD SWAP1 POP PUSH2 0x136 DUP2 PUSH2 0x112 JUMP JUMPDEST SWAP3 SWAP2 POP POP JUMP JUMPDEST PUSH0 PUSH1 0x20 DUP3 DUP5 SUB SLT ISZERO PUSH2 0x151 JUMPI PUSH2 0x150 PUSH2 0x10E JUMP JUMPDEST JUMPDEST PUSH0 PUSH2 0x15E DUP5 DUP3 DUP6 ADD PUSH2 0x128 JUMP JUMPDEST SWAP2 POP POP SWAP3 SWAP2 POP POP JUMP INVALID LOG2 PUSH5 0x6970667358 0x22 SLT KECCAK256 DIV 0xB5 0xAF DUP2 POP PUSH11 0xC1893F59FFEF2873C61B54 PUSH2 0x7E5E 0xDB 0xF8 0xB2 0xA5 0xF 0xD1 PUSH9 0x10F48D4F7264736F6C PUSH4 0x4300081C STOP CALLER "
		},
		"gasEstimates": {
			"creation": {
				"codeDepositCost": "82600",
				"executionCost": "22233",
				"totalCost": "104833"
			},
			"external": {
				"new_value()": "2469",
				"setValue(int256)": "22514",
				"terra()": "347",
				"value()": "2402"
			}
		},
		"methodIdentifiers": {
			"new_value()": "e64959d4",
			"setValue(int256)": "5093dc7d",
			"terra()": "618ea1c4",
			"value()": "3fa4f245"
		}
	},
	"abi": [
		{
			"inputs": [],
			"name": "new_value",
			"outputs": [
				{
					"internalType": "int256",
					"name": "",
					"type": "int256"
				}
			],
			"stateMutability": "view",
			"type": "function"
		},
		{
			"inputs": [
				{
					"internalType": "int256",
					"name": "_value",
					"type": "int256"
				}
			],
			"name": "setValue",
			"outputs": [],
			"stateMutability": "nonpayable",
			"type": "function"
		},
		{
			"inputs": [],
			"name": "terra",
			"outputs": [
				{
					"internalType": "int256",
					"name": "",
					"type": "int256"
				}
			],
			"stateMutability": "view",
			"type": "function"
		},
		{
			"inputs": [],
			"name": "value",
			"outputs": [
				{
					"internalType": "int256",
					"name": "",
					"type": "int256"
				}
			],
			"stateMutability": "view",
			"type": "function"
		}
	]
}